:100000000C942A000C94A50A0C942E0A0C949509C1
:100010000C94D3070C9447000C9447000C944700B1
:100020000C9447000C9447000C94B2080C944700C1
:100030000C9447000C9447000C9447000C94470024
:100040000C94E30F0C9447000C9447000C94470069
:100050000C94470011241FBECFE5D8E0DEBFCDBF12
:1000600011E0A0E6B0E0EEE6F3E402C005900D92E8
:10007000AE38B107D9F711E0AEE8B1E001C01D928A
:10008000A93AB107E1F70E9443210C94B5210C94E1
:100090000000EF92FF920F931F937B018C0120E0F1
:1000A00030E040E05FE40E94F50388238CF0C80153
:1000B000B70120E030E040E05FE40E94C1010E940F
:1000C00055049B01AC01205030404040504806C0D0
:1000D000C801B7010E9455049B01AC01B901CA01D6
:1000E0001F910F91FF90EF900895A0E0B0E0EBE733
:1000F000F0E00C947E21DC012B01FA019C919230FE
:1001000008F439C1EB018881823008F433C194309E
:1001100069F4843009F02FC111969C91119789815F
:10012000981709F428C1A0E6B0E025C1843009F48D
:1001300021C18230A9F4923009F01DC19A01AD01AC
:1001400088E0EA010990AE01E90109929E0181501F
:10015000C1F7E201898111969C918923818308C1AD
:10016000923009F407C112962D903C901397EB0141
:100170008A819B811496AD90BD90CD90DC901797AD
:10018000EC80FD800E811F819101281B390BB90184
:1001900037FF04C066277727621B730B6032710537
:1001A0000CF061C0121613066CF537014801062EDB
:1001B00004C096948794779467940A94D2F721E0C8
:1001C00030E040E050E004C0220F331F441F551FB1
:1001D0006A95D2F721503040404050402E213F21B7
:1001E00040235123211531054105510521F021E01E
:1001F00030E040E050E079018A01E628F72808293C
:1002000019293CC0232BD1F1260E371E350146019A
:10021000062E04C096948794779467940A94D2F734
:1002200021E030E040E050E004C0220F331F441FC3
:10023000551F6A95D2F721503040404050402A2146
:100240003B214C215D21211531054105510521F04E
:1002500021E030E040E050E059016A01A628B728CB
:10026000C828D9280BC0821593052CF01C01AA249C
:10027000BB24650103C0EE24FF24870111969C91E5
:10028000D20111968C91981709F445C0992339F041
:10029000A80197012A193B094C095D0906C0A6016E
:1002A00095012E193F09400B510B57FD08C01182D3
:1002B0003382228224833583468357831DC081E0A5
:1002C00081833382228288279927DC01821B930B4A
:1002D000A40BB50B84839583A683B7830DC0220F2F
:1002E000331F441F551F24833583468357838281E0
:1002F000938101979383828324813581468157813D
:10030000DA01C9010197A109B1098F5F9F4FAF4F72
:10031000BF4328F30BC0918333822282EA0CFB1C7B
:100320000C1D1D1DE482F5820683178383E0808304
:10033000248135814681578157FF1AC0C901AA27F8
:1003400097FDA095BA2F81709070A070B0705695EF
:10035000479537952795822B932BA42BB52B848318
:100360009583A683B7838281938101969383828349
:10037000DF0101C0D201CD01CDB7DEB7E2E10C94BF
:100380009A21A0E2B0E0E7ECF1E00C948A216983C5
:100390007A838B839C832D833E834F835887E9E048
:1003A000EE2EF12CEC0EFD1ECE010196B7010E943F
:1003B00046068E010F5E1F4FCE010596B8010E94C2
:1003C00046068A8991E089278A8BC701B801AE0168
:1003D000475E5F4F0E9475000E947105A096E6E09F
:1003E0000C94A621A0E2B0E0E8EFF1E00C948A21A1
:1003F00069837A838B839C832D833E834F835887C5
:10040000F9E0EF2EF12CEC0EFD1ECE010196B701A6
:100410000E9446068E010F5E1F4FCE010596B80161
:100420000E944606C701B801AE01475E5F4F0E94B9
:1004300075000E947105A096E6E00C94A621A0E24A
:10044000B0E0E5E2F2E00C947E2169837A838B834D
:100450009C832D833E834F835887CE010196BE0136
:10046000675F7F4F0E944606CE010596BE016F5E14
:100470007F4F0E9446069985923088F089898230A4
:10048000C8F0943019F4823051F404C0843029F457
:10049000923081F480E690E0C6C0923049F420E0CA
:1004A0009A858A89981321E02A87CE010996BBC0D4
:1004B000823049F420E09A858A89981321E02A8BBA
:1004C000CE014196B0C02D843E844F8458886D88FB
:1004D0007E888F88988CEE24FF248701AA24BB2471
:1004E000650140E050E060E070E0E0E0F0E0C10174
:1004F00081709070892BE9F0E60CF71C081D191D1E
:100500009A01AB012A0D3B1D4C1D5D1D80E090E062
:10051000A0E0B0E0E614F7040805190520F481E036
:1005200090E0A0E0B0E0BA01A901480F591F6A1F8E
:100530007B1FAA0CBB1CCC1CDD1C97FE08C081E0F5
:1005400090E0A0E0B0E0A82AB92ACA2ADB2A3196B6
:10055000E032F10549F0660C771C881C991C569412
:10056000479437942794C3CFFA85EA892B893C892D
:100570008B859C85280F391F2E5F3F4F17C0CA01FE
:1005800081709070892B61F016950795F794E79428
:1005900080E090E0A0E0B0E8E82AF92A0A2B1B2BC3
:1005A00076956795579547952F5F3F4F77FDE7CF36
:1005B0000CC0440F551F661F771F17FD4160EE0CDE
:1005C000FF1C001F111F21503040403090E05907A0
:1005D00090E0690790E4790760F32B8F3C8FDB0193
:1005E000CA018F779070A070B07080349105A1051A
:1005F000B10561F447FD0AC0E114F10401051105DC
:1006000029F0405C5F4F6F4F7F4F40781A8EFE1786
:1006100011F081E08A8F4D8F5E8F6F8F78A383E01A
:10062000898FCE0149960E947105A096E2E10C9453
:100630009A21A8E1B0E0EFE1F3E00C948621698310
:100640007A838B839C832D833E834F835887B9E0C5
:10065000EB2EF12CEC0EFD1ECE010196B7010E948F
:1006600046068E010F5E1F4FCE010596B8010E940F
:1006700046062985223008F47EC03989323010F4CC
:10068000B8017CC08A859A8989278A87243011F02D
:10069000223031F4231709F06EC060E670E06EC0BE
:1006A000343039F41D861E861F86188A1C861B86E8
:1006B00004C0323021F484E08987B7015FC02B8504
:1006C0003C858B899C89281B390B3C872B87ED84C3
:1006D000FE840F851889AD88BE88CF88D88CEA142F
:1006E000FB040C051D0540F4EE0CFF1C001F111F40
:1006F000215030403C872B8720E030E040E050E044
:1007000080E090E0A0E0B0E460E070E0EA14FB0478
:100710000C051D0540F0282B392B4A2B5B2BEA18C2
:10072000FB080C091D09B695A79597958795EE0CC2
:10073000FF1C001F111F6F5F7F4F6F31710531F775
:10074000DA01C9018F779070A070B0708034910584
:10075000A105B10561F427FD0AC0E114F10401050A
:10076000110529F0205C3F4F4F4F5F4F20782D87B8
:100770003E874F87588BBE01675F7F4FCB010E943A
:1007800071056896EAE00C94A221A8E1B0E0EBECD8
:10079000F3E00C948A2169837A838B839C832D8375
:1007A0003E834F83588789E0E82EF12CEC0EFD1E26
:1007B000CE010196B7010E9446068E010F5E1F4FC3
:1007C000CE010596B8010E9446068985823040F028
:1007D0008989823028F0C701B8010E94BE0601C095
:1007E0008FEF6896E6E00C94A621A8E1B0E0EBEF6D
:1007F000F3E00C948A2169837A838B839C832D8315
:100800003E834F83588789E0E82EF12CEC0EFD1EC5
:10081000CE010196B7010E9446068E010F5E1F4F62
:10082000CE010596B8010E9446068985823040F0C7
:100830008989823028F0C701B8010E94BE0601C034
:100840008FEF6896E6E00C94A621A8E1B0E0EBE219
:10085000F4E00C948A2169837A838B839C832D83B3
:100860003E834F83588789E0E82EF12CEC0EFD1E65
:10087000CE010196B7010E9446068E010F5E1F4F02
:10088000CE010596B8010E9446068985823040F067
:100890008989823028F0C701B8010E94BE0601C0D4
:1008A00081E06896E6E00C94A621ACE0B0E0EBE5D0
:1008B000F4E00C948E2169837A838B839C83CE0130
:1008C0000196BE016B5F7F4F0E9446068D8182308C
:1008D00061F1823050F1843021F48E81882351F10E
:1008E0002EC02F81388537FD20C06E812F31310514
:1008F0001CF06623F9F023C08EE190E0821B930B7D
:1009000029853A854B855C8504C056954795379572
:1009100027958A95D2F76623B1F05095409530958A
:1009200021953F4F4F4F5F4F0EC020E030E040E039
:1009300050E009C02FEF3FEF4FEF5FE704C020E02A
:1009400030E040E050E8B901CA012C96E2E00C9496
:10095000AA21A8E0B0E0EFEAF4E00C9486217B0144
:100960008C01611571058105910519F482E0898377
:1009700060C083E089838EE1C82ED12CDC82CB82DB
:10098000ED82FE820F831887C801B7010E942205FD
:10099000FC013197F7FF3BC0222733272E1B3F0B6B
:1009A00057016801022E04C0D694C794B794A79447
:1009B0000A94D2F740E050E060E070E081E090E01F
:1009C000A0E0B0E004C0880F991FAA1FBB1F2A95A2
:1009D000D2F70197A109B1098E219F21A023B1234C
:1009E0000097A105B10521F041E050E060E070E022
:1009F0004A295B296C297D294D835E836F83788723
:100A00008EE190E08E1B9F0B9C838B8312C03097EE
:100A100081F00E2E04C0EE0CFF1C001F111F0A9463
:100A2000D2F7ED82FE820F831887CE1ADF0ADC82AE
:100A3000CB821A82CE0101960E9471052896EAE0C7
:100A40000C94A221EF92FF920F931F937B018C01D4
:100A500080E0E81680E0F80681E0080780E01807EB
:100A600088F48FEFE816F1040105110531F028F044
:100A700088E090E0A0E0B0E017C080E090E0A0E067
:100A8000B0E012C080E0E81680E0F80680E00807D9
:100A900081E0180728F088E190E0A0E0B0E004C011
:100AA00080E190E0A0E0B0E020E230E040E050E003
:100AB000281B390B4A0B5B0B04C016950795F7945E
:100AC000E7948A95D2F7F701E859FF4F8081281BF8
:100AD000310941095109C9011F910F91FF90EF9010
:100AE0000895DF92EF92FF920F931F93FC01E48031
:100AF000F58006811781D1808081823048F480E0C2
:100B000090E0A0E1B0E0E82AF92A0A2B1B2BA5C04F
:100B1000843009F49FC0823021F4EE24FF24870141
:100B200005C0E114F1040105110519F4E0E0F0E05D
:100B300096C0628173819FEF623879070CF05BC0C9
:100B400022E83FEF261B370B2A3131052CF020E03D
:100B500030E040E050E02AC0B801A701022E04C0F6
:100B600076956795579547950A94D2F781E090E07E
:100B7000A0E0B0E004C0880F991FAA1FBB1F2A95F0
:100B8000D2F70197A109B1098E219F21A023B1239A
:100B90000097A105B10521F081E090E0A0E0B0E070
:100BA0009A01AB01282B392B4A2B5B2BDA01C901A7
:100BB0008F779070A070B07080349105A105B10559
:100BC00039F427FF09C0205C3F4F4F4F5F4F04C0EF
:100BD000215C3F4F4F4F5F4FE0E0F0E02030A0E05E
:100BE0003A07A0E04A07A0E45A0710F0E1E0F0E07D
:100BF00079018A0127C06038710564F5FB01E1586D
:100C0000FF4FD801C7018F779070A070B07080340B
:100C10009105A105B10539F4E7FE0DC080E490E02F
:100C2000A0E0B0E004C08FE390E0A0E0B0E0E80E08
:100C3000F91E0A1F1B1F17FF05C016950795F7948D
:100C4000E794319687E016950795F794E7948A958F
:100C5000D1F705C0EE24FF248701EFEFF0E06E2FFF
:100C6000679566276795902F9F77D794DD24D79453
:100C70008E2F8695492F462B582F5D29B701CA0123
:100C80001F910F91FF90EF90DF900895FC01DB0121
:100C9000408151812281622F6F7770E0221F2227CD
:100CA000221F9381892F880F822B282F30E0991FD4
:100CB0009927991F11969C93119721153105A9F534
:100CC000411551056105710511F482E037C082E8D4
:100CD0009FEF13969C938E9312979A01AB0167E056
:100CE000220F331F441F551F6A95D1F783E08C9361
:100CF0000DC0220F331F441F551F12968D919C91DA
:100D00001397019713969C938E931297203080E04F
:100D1000380780E0480780E4580758F314962D936D
:100D20003D934D935C93179708952F3F310579F4C8
:100D3000411551056105710519F484E08C930895FE
:100D400064FF03C081E08C9312C01C9210C02F5727
:100D5000304013963C932E93129783E08C9387E058
:100D6000440F551F661F771F8A95D1F7706414963C
:100D70004D935D936D937C93179708951F93DC01BA
:100D8000FB019C91923008F447C08081823008F4C6
:100D900043C0943051F411961C91843099F58181AF
:100DA000682F70E0611B71093FC0843021F09230E0
:100DB00031F48230B9F18181882389F12DC01196F7
:100DC0001C9111978230F1F081811817D9F4129695
:100DD0002D913C911397828193818217930794F010
:100DE00028173907BCF014968D919D910D90BC91F8
:100DF000A02D2481358146815781281739074A075C
:100E00005B0718F4112341F00AC082179307A40767
:100E1000B50740F4112319F061E070E005C06FEFF1
:100E20007FEF02C060E070E0CB011F910895DF9377
:100E3000CF93CDB7DEB7A1E4B0E0E1E4F0E080818C
:100E400088608C93CF91DF910895DF93CF93CDB7D6
:100E5000DEB7E1E4F0E088E18083E1E4F0E01082D5
:100E6000CF91DF910895DF93CF9300D0CDB7DEB758
:100E700089838981883088F4A1E4B0E0E1E4F0E07E
:100E80008081887F8C93A1E4B0E0E1E4F0E0908180
:100E90008981892B8C931A8202C081E08A838A819E
:100EA0000F900F90CF91DF910895DF93CF93CDB73F
:100EB000DEB7A5E4B0E0E5E4F0E0808180688C93E3
:100EC000A5E4B0E0E5E4F0E0808188608C93A5E4DF
:100ED000B0E0E5E4F0E080818F7B8C93A5E4B0E0A6
:100EE000E5E4F0E080818F7E8C93A5E4B0E0E5E45A
:100EF000F0E080818F7D8C93A5E4B0E0E5E4F0E044
:100F000080818E7F8C93A5E4B0E0E5E4F0E0808101
:100F100082608C93A5E4B0E0E5E4F0E080818B7F13
:100F20008C93A9E5B0E0E9E5F0E0808180688C93DE
:100F3000A9E5B0E0E9E5F0E080818F7B8C93CF916B
:100F4000DF910895DF93CF9300D00F92CDB7DEB736
:100F500089837B836A83E3E4F0E089818083EA818B
:100F6000FB818081918190939301809392010F90F6
:100F70000F900F90CF91DF910895DF93CF9300D022
:100F8000CDB7DEB79A83898389819A81009731F042
:100F900089819A8190938F0180938E010F900F9099
:100FA000CF91DF9108951F920F920FB60F921124E7
:100FB0002F933F934F935F936F937F938F939F9361
:100FC000AF93BF93EF93FF93DF93CF93CDB7DEB78C
:100FD000809190019091910101969093910180935D
:100FE0009001209190013091910180919201909116
:100FF00093012817390729F4E0918E01F0918F01B0
:101000000995CF91DF91FF91EF91BF91AF919F91A2
:101010008F917F916F915F914F913F912F910F90A1
:101020000FBE0F901F901895DF93CF9300D000D084
:10103000CDB7DEB7A3E5B0E0E3E5F0E080818E7FD9
:101040008C93A3E5B0E0E3E5F0E0808182608C93CF
:10105000A3E5B0E0E3E5F0E080818B7F8C9388E04E
:1010600090E09A83898389819A81CC01A0E0B0E0E5
:10107000BC01CD010E94A904DC01CB01BC01CD0162
:1010800020E030E040E051E40E941903DC01CB0194
:10109000BC01CD010E944900DC01CB019C838B8304
:1010A000A3E5B0E0E3E5F0E080818F7B8C93A3E5DE
:1010B000B0E0E3E5F0E0808188608C93A9E5B0E0E2
:1010C000E9E5F0E0808182608C93A9E5B0E0E9E594
:1010D000F0E080818E7F8C930F900F900F900F9097
:1010E000CF91DF910895DF93CF9300D00F92CDB7CA
:1010F000DEB789837B836A83ECE5F0E089818083B6
:10110000EA81FB8180819181CC01A0E0B0E08093F5
:10111000A5019093A601A093A701B093A8010F90F9
:101120000F900F90CF91DF910895DF93CF9300D070
:101130000F92CDB7DEB79A83898389819A81009710
:1011400049F089819A81909395018093940181E07F
:101150008B8301C01B828B810F900F900F90CF91DA
:10116000DF9108951F920F920FB60F9211242F93C3
:101170003F934F935F936F937F938F939F93AF931F
:10118000BF93EF93FF93DF93CF93CDB7DEB78091FB
:101190009601909197010196909397018093960103
:1011A00080919601909197019C0140E050E08091E0
:1011B000A5019091A601A091A701B091A8012817BF
:1011C00039074A075B0749F4E0919401F0919501D2
:1011D00009951092970110929601CF91DF91FF919E
:1011E000EF91BF91AF919F918F917F916F915F919F
:1011F0004F913F912F910F900FBE0F901F90189518
:10120000DF93CF93CDB7DEB782E465E041E00E9483
:10121000D20A82E466E040E00E94D20A82E467E0FB
:1012200041E00E94D20A81E467E041E00E94D20AD4
:10123000ADE2B0E0EDE2F0E0808181608C93ADE260
:10124000B0E0EDE2F0E0808184608C93ADE2B0E04C
:10125000EDE2F0E0808188608C93ADE2B0E0EDE2F9
:10126000F0E0808180618C93ADE2B0E0EDE2F0E0EF
:10127000808180628C93ADE2B0E0EDE2F0E08081AD
:1012800080648C93CF91DF910895DF93CF930F9279
:10129000CDB7DEB7898381E467E040E00E94E70BC9
:1012A000EFE2F0E089818083EEE2F0E08081882344
:1012B000DCF7EFE2F0E080810F90CF91DF910895AD
:1012C000DF93CF93CDB7DEB70E942510ABE5B0E03A
:1012D000EBE5F0E0808180628C93A4E5B0E0E4E58A
:1012E000F0E0808180648C93CF91DF910895DF934B
:1012F000CF9300D00F92CDB7DEB79A8389838981CF
:101300009A81009749F080919801909199019A8370
:10131000898381E08B8302C082E08B838B810F9075
:101320000F900F90CF91DF9108951F920F920FB6FB
:101330000F9211242F933F934F935F936F937F935B
:101340008F939F93AF93BF93EF93FF93DF93CF93CD
:10135000CDB7DEB78091980190919901009729F05F
:10136000E0919801F09199010995CF91DF91FF915A
:10137000EF91BF91AF919F918F917F916F915F910D
:101380004F913F912F910F900FBE0F901F90189586
:10139000DF93CF93CDB7DEB70E942510ABE5B0E069
:1013A000EBE5F0E0808180688C93A5E5B0E0E5E5B1
:1013B000F0E080818B7F8C93A5E5B0E0E5E5F0E07F
:1013C0008081877F8C93A5E5B0E0E5E5F0E0808142
:1013D00084608C93A5E5B0E0E5E5F0E08081877F4F
:1013E0008C93A5E5B0E0E5E5F0E080818B7F8C9300
:1013F000A5E5B0E0E5E5F0E0808188608C93A5E5A7
:10140000B0E0E5E5F0E0808184608C93A5E5B0E094
:10141000E5E5F0E0808188608C93CF91DF910895BD
:10142000DF93CF9300D00F92CDB7DEB79A83898335
:1014300089819A81009749F080919A0190919B014E
:101440009A83898381E08B8302C082E08B838B81C6
:101450000F900F900F90CF91DF9108951F920F92F0
:101460000FB60F9211242F933F934F935F936F9377
:101470007F938F939F93AF93BF93EF93FF93DF93EC
:10148000CF93CDB7DEB780919A0190919B010097E1
:1014900029F0E0919A01F0919B010995CF91DF919C
:1014A000FF91EF91BF91AF919F918F917F916F913C
:1014B0005F914F913F912F910F900FBE0F901F9012
:1014C0001895DF93CF93CDB7DEB784E462E040E0B8
:1014D0000E94D20A84E462E041E00E94E70BABE59F
:1014E000B0E0EBE5F0E0808180648C93A5E5B0E0AE
:1014F000E5E5F0E080818E7F8C93A5E5B0E0E5E541
:10150000F0E0808182608C93CF91DF910895DF932A
:10151000CF9300D00F92CDB7DEB79A8389838981AC
:101520009A81009749F089819A8190939D018093D7
:101530009C0181E08B8302C082E08B838B810F90C2
:101540000F900F90CF91DF9108951F920F920FB6D9
:101550000F9211242F933F934F935F936F937F9339
:101560008F939F93AF93BF93EF93FF93DF93CF93AB
:10157000CDB7DEB7E0919C01F0919D010995CF9127
:10158000DF91FF91EF91BF91AF919F918F917F91EB
:101590006F915F914F913F912F910F900FBE0F90E0
:1015A0001F901895DF93CF93CDB7DEB728970FB66E
:1015B000F894DEBF0FBECDBF89836A834B838A81D7
:1015C000883008F0F8C08B81813009F073C08981C0
:1015D000282F30E038872F838F81988582349105BA
:1015E00051F12F8138852334310534F48F8198856A
:1015F0008134910561F05BC02F813885233431053A
:1016000071F18F81988584349105E9F150C0AAE386
:10161000B0E0EAE3F0E08081482F8A81282F30E0B3
:1016200081E090E0022E02C0880F991F0A94E2F731
:10163000842B8C93BEC0A7E3B0E0E7E3F0E08081A9
:10164000482F8A81282F30E081E090E0022E02C0EE
:10165000880F991F0A94E2F7842B8C93AAC0A4E305
:10166000B0E0E4E3F0E08081482F8A81282F30E069
:1016700081E090E0022E02C0880F991F0A94E2F7E1
:10168000842B8C9396C0A1E3B0E0E1E3F0E080818D
:10169000482F8A81282F30E081E090E0022E02C09E
:1016A000880F991F0A94E2F7842B8C9382C091E0F3
:1016B0009E8383C08B81882309F078C08981282F7D
:1016C00030E03D832C838C819D818234910561F1D2
:1016D0002C813D812334310534F48C819D8181340A
:1016E000910569F060C02C813D812334310589F179
:1016F0008C819D818434910509F440C054C0AAE3D3
:10170000B0E0EAE3F0E08081482F8A81282F30E0C2
:1017100081E090E0022E02C0880F991F0A94E2F740
:10172000809584238C9345C0A7E3B0E0E7E3F0E025
:101730008081482F8A81282F30E081E090E0022EBE
:1017400002C0880F991F0A94E2F7809584238C9336
:1017500030C0A4E3B0E0E4E3F0E08081482F8A8168
:10176000282F30E081E090E0022E02C0880F991F00
:101770000A94E2F7809584238C931BC0A1E3B0E028
:10178000E1E3F0E08081482F8A81282F30E081E07A
:1017900090E0022E02C0880F991F0A94E2F780950C
:1017A00084238C9306C091E09E8307C023E02E83A0
:1017B00004C01E8202C032E03E838E8128960FB69E
:1017C000F894DEBF0FBECDBFCF91DF910895DF93B8
:1017D000CF93CDB7DEB728970FB6F894DEBF0FBE14
:1017E000CDBF89836A834B838A81883008F0F8C033
:1017F0008B81813009F073C08981282F30E03887D0
:101800002F838F8198858234910551F12F813885FE
:101810002334310534F48F8198858134910561F04A
:101820005BC02F8138852334310571F18F81988514
:1018300084349105E9F150C0ABE3B0E0EBE3F0E0B4
:101840008081482F8A81282F30E081E090E0022EAD
:1018500002C0880F991F0A94E2F7842B8C93BEC0B4
:10186000A8E3B0E0E8E3F0E08081482F8A81282FE8
:1018700030E081E090E0022E02C0880F991F0A94A8
:10188000E2F7842B8C93AAC0A5E3B0E0E5E3F0E097
:101890008081482F8A81282F30E081E090E0022E5D
:1018A00002C0880F991F0A94E2F7842B8C9396C08C
:1018B000A2E3B0E0E2E3F0E08081482F8A81282FA4
:1018C00030E081E090E0022E02C0880F991F0A9458
:1018D000E2F7842B8C9382C091E09E8383C08B813E
:1018E000882309F078C08981282F30E03D832C833C
:1018F0008C819D818234910561F12C813D8123345D
:10190000310534F48C819D818134910569F060C08A
:101910002C813D812334310589F18C819D81843472
:10192000910509F440C054C0ABE3B0E0EBE3F0E054
:101930008081482F8A81282F30E081E090E0022EBC
:1019400002C0880F991F0A94E2F7809584238C9334
:1019500045C0A8E3B0E0E8E3F0E08081482F8A8149
:10196000282F30E081E090E0022E02C0880F991FFE
:101970000A94E2F7809584238C9330C0A5E3B0E00D
:10198000E5E3F0E08081482F8A81282F30E081E074
:1019900090E0022E02C0880F991F0A94E2F780950A
:1019A00084238C931BC0A2E3B0E0E2E3F0E08081EB
:1019B000482F8A81282F30E081E090E0022E02C07B
:1019C000880F991F0A94E2F7809584238C9306C0B0
:1019D00091E09E8307C024E02E8304C01E8202C0D3
:1019E00032E03E838E8128960FB6F894DEBF0FBE9C
:1019F000CDBFCF91DF910895DF93CF93CDB7DEB701
:101A000027970FB6F894DEBF0FBECDBF89836A83D8
:101A10005C834B838A81883008F076C08981282FC7
:101A200030E03F832E834E815F814234510559F16E
:101A30008E819F818334910534F42E813F8121343E
:101A4000310569F05CC04E815F814334510579F105
:101A50008E819F818434910509F43DC050C0E9E333
:101A6000F0E08081282F30E08A81882F90E0A90162
:101A700002C0559547958A95E2F7CA018170EB81BE
:101A8000FC8180833FC0E6E3F0E08081282F30E0D6
:101A90008A81882F90E0A90102C0559547958A95C3
:101AA000E2F7CA018170EB81FC8180832BC0E3E304
:101AB000F0E08081282F30E08A81882F90E0A90112
:101AC00002C0559547958A95E2F7CA018170EB816E
:101AD000FC81808317C0E0E3F0E08081282F30E0B4
:101AE0008A81882F90E0A90102C0559547958A9573
:101AF000E2F7CA018170EB81FC81808303C051E071
:101B00005D8304C01D8202C082E08D838D81279693
:101B10000FB6F894DEBF0FBECDBFCF91DF91089511
:101B2000DF93CF9300D000D00F92CDB7DEB789837B
:101B30006A838981282F30E03D832C838C819D81AD
:101B400082349105D9F02C813D812334310534F460
:101B50008C819D818134910561F01FC02C813D8174
:101B60002334310581F08C819D818434910581F08D
:101B700014C0EAE3F0E08A81808312C0E7E3F0E07A
:101B80008A8180830DC0E4E3F0E08A81808308C00D
:101B9000E1E3F0E08A81808303C091E09B8301C090
:101BA0001B828B810F900F900F900F900F90CF9111
:101BB000DF910895DF93CF9300D000D00F92CDB77F
:101BC000DEB789836A838981282F30E03D832C83A7
:101BD0008C819D8182349105D9F02C813D81233403
:101BE000310534F48C819D818134910561F01FC0F1
:101BF0002C813D812334310581F08C819D81843499
:101C0000910581F014C0EBE3F0E08A81808312C07B
:101C1000E8E3F0E08A8180830DC0E5E3F0E08A81AB
:101C2000808308C0E2E3F0E08A81808303C091E012
:101C30009B8301C01B828B810F900F900F900F90A0
:101C40000F90CF91DF910895DF93CF9300D000D014
:101C500000D0CDB7DEB789837B836A838A819B817D
:101C6000009709F441C08981282F30E03E832D83FD
:101C70008D819E8182349105E9F02D813E8123344E
:101C8000310534F48D819E818134910561F027C046
:101C90002D813E8123343105A1F08D819E818434D4
:101CA0009105B1F01CC0E9E3F0E08081EA81FB819D
:101CB000808318C0E6E3F0E08081EA81FB818083C5
:101CC00011C0E3E3F0E08081EA81FB8180830AC0F8
:101CD000E0E3F0E08081EA81FB81808303C091E052
:101CE0009C8304C01C8202C025E02C838C81269634
:101CF0000FB6F894DEBF0FBECDBFCF91DF91089530
:101D0000DF93CF930F92CDB7DEB7E0E4F0E083E34B
:101D10008083898180688983AAE2B0E0EAE2F0E00A
:101D200080818F778C93AAE2B0E0EAE2F0E08081D4
:101D30008F7B8C9389818F7B898389818F7E898337
:101D400089818F7D89838981877F89838981826069
:101D5000898389818460898389818B7F8983E0E499
:101D6000F0E089818083AAE2B0E0EAE2F0E08081DD
:101D700088608C93AAE2B0E0EAE2F0E080818061C2
:101D80008C930F90CF91DF910895DF93CF9300D084
:101D9000CDB7DEB79A838983EBE2F0E08081882FAC
:101DA00090E0807290700097B9F3ECE2F0E08981E6
:101DB00080830F900F90CF91DF910895DF93CF93A1
:101DC000CDB7DEB7A7E2B0E0E7E2F0E080818F7B3D
:101DD0008C93A7E2B0E0E7E2F0E080818F778C930C
:101DE000A7E2B0E0E7E2F0E0808180628C93A6E2B7
:101DF000B0E0E6E2F0E08081887F8C93A6E2B0E07C
:101E0000E6E2F0E0808182608C93A6E2B0E0E6E258
:101E1000F0E0808180688C9380E0CF91DF9108951D
:101E2000DF93CF93CDB7DEB728970FB6F894DEBF18
:101E30000FBECDBF8E8378876F838091680181301C
:101E400009F05DC010926801A7E2B0E0E7E2F0E0BF
:101E50008081807E8C93A7E2B0E0E7E2F0E09081A1
:101E60008E81892B8C93A6E2B0E0E6E2F0E08081DF
:101E700080648C930BC089819A81AB81BC8101966F
:101E8000A11DB11D89839A83AB83BC83E6E2F0E098
:101E9000808182958F70882F90E08170907000977C
:101EA00061F489819A81AB81BC81883823E19207F2
:101EB00020E0A20720E0B207F1F689819A81AB8188
:101EC000BC81883823E1920720E0A20720E0B20716
:101ED00019F485E08D8315C0A6E2B0E0E6E2F0E0FB
:101EE000808180618C93E5E2F0E08081882F90E032
:101EF000EF81F8859183808381E08D8302C083E048
:101F00008D8381E0809368018D8128960FB6F894C7
:101F1000DEBF0FBECDBFCF91DF910895DF93CF938A
:101F200000D000D000D0CDB7DEB78A837C836B832E
:101F30005E834D83809168018130C9F58B819C81DE
:101F4000009721F08D819E81009719F486E08983A6
:101F500030C0109268018B819C8190939F01809387
:101F60009E018D819E819093A1018093A001A7E2A3
:101F7000B0E0E7E2F0E08081807E8C93A7E2B0E001
:101F8000E7E2F0E090818A81892B8C93A6E2B0E0B1
:101F9000E6E2F0E0808180648C93A6E2B0E0E6E2C5
:101FA000F0E0808188608C9382E0898302C084E0C5
:101FB0008983898126960FB6F894DEBF0FBECDBF08
:101FC000CF91DF9108951F920F920FB60F921124B7
:101FD0002F933F934F935F936F937F938F939F9331
:101FE000AF93BF93EF93FF93DF93CF93CDB7DEB75C
:101FF000A0919E01B0919F01E5E2F0E08081882FE1
:1020000090E08D939C93E091A001F091A10109953E
:10201000A6E2B0E0E6E2F0E08081877F8C9381E089
:1020200080936801CF91DF91FF91EF91BF91AF91C4
:102030009F918F917F916F915F914F913F912F91E0
:102040000F900FBE0F901F901895DF93CF93CDB7D1
:10205000DEB7AFE5B0E0EFE5F0E0808180688C931B
:10206000CF91DF910895DF93CF93CDB7DEB7289757
:102070000FB6F894DEBF0FBECDBF9C838B837E83EB
:102080006D83EB81FC8182818823C9F5EB81FC8122
:102090008081EB81FC819181692F40E00E94D20A0E
:1020A0008A838A81813031F08A81833019F08A8174
:1020B000823011F41F8276C0EB81FC818081EB813C
:1020C000FC819181692F41E00E94E70BEB81FC814B
:1020D0008081EB81FC8191812D813E81692FA90155
:1020E0000E94FC0C89838981823019F089818130BA
:1020F00019F481E08F8356C082E08F8353C0EB8157
:10210000FC818281813021F5EB81FC818081EB8132
:10211000FC819181692F40E00E94D20A8A83EB8181
:10212000FC818081EB81FC8191812D813E81692F31
:10213000A9010E94FC0C89838981823019F0898170
:10214000813019F481E08F832DC082E08F832AC013
:10215000EB81FC818281823021F5EB81FC818081E1
:10216000EB81FC819181692F40E00E94D20A8A8331
:10217000EB81FC818081EB81FC8191812D813E810D
:10218000692FA9010E94FC0C89838981823019F092
:102190008981813019F481E08F8304C082E08F83CC
:1021A00001C002C08F818887888528960FB6F89471
:1021B000DEBF0FBECDBFCF91DF910895DF93CF93E8
:1021C00000D000D000D0CDB7DEB78B837D836C8389
:1021D000EC81FD81818161E00E94900D8A838A817A
:1021E000813019F08A81833019F481E08E838CC0AC
:1021F000EC81FD818081882309F03FC0EC81FD8165
:102200008281EC81FD819381692F41E00E94D20A95
:102210008A838A81813031F08A81833019F08A8102
:10222000823019F481E08E836FC0EC81FD81828160
:10223000EC81FD819381692F41E00E94E70B898346
:102240008981813031F08981843019F0898182302F
:1022500011F41E8259C0EC81FD8121818B81882F70
:1022600090E0FC01E759FE4F9081822F692F0E9478
:10227000DA0D898382E08E8347C0EC81FD81808105
:10228000813009F03FC0EC81FD818281EC81FD81CC
:102290009381692F41E00E94D20A8A838A8181302A
:1022A00031F08A81833019F08A81823019F481E01B
:1022B0008E832AC0EC81FD818281EC81FD81938136
:1022C000692F40E00E94E70B89838981813031F0DA
:1022D0008981843019F08981823011F41E8214C002
:1022E000EC81FD8121818B81882F90E0FC01ED58EC
:1022F000FE4F9081822F692F0E94DA0D898382E040
:102300008E8302C082E08E838E8126960FB6F8946B
:10231000DEBF0FBECDBFCF91DF910895DF93CF9386
:10232000CDB7DEB7EF970FB6F894DEBF0FBECDBFC7
:102330009CAF8BAF6DAF4EAFEBADFCAD818161E07B
:102340000E94900D8AAD813019F08AAD833019F466
:1023500081E08FAF57C2EBADFCAD8081882309F0DF
:1023600025C1EBADFCAD8281EBADFCAD9381692F56
:1023700041E00E94D20A8AAF8AAD813031F08AAD45
:10238000833019F08AAD823019F481E08FAF3AC200
:10239000EBADFCAD8281EBADFCAD9381692F41E0EB
:1023A0000E94E70B89AFEBADFCAD21818DAD882F8D
:1023B00090E0FC01E759FE4F9081822F692F0E9427
:1023C000DA0D89AF80E090E0AAEFB3E48DAB9EAB6D
:1023D000AFABB8AF6DA97EA98FA998AD20E030E072
:1023E0004AEF54E40E941F02DC01CB0189AB9AAB97
:1023F000ABABBCAB69A97AA98BA99CA920E030E062
:1024000040E85FE30E94250488232CF481E090E0FB
:1024100098AB8FA73FC069A97AA98BA99CA920E096
:102420003FEF4FE757E40E94C50318164CF56DA91E
:102430007EA98FA998AD20E030E040E251E40E94EF
:102440001F02DC01CB01BC01CD010E944900DC016F
:10245000CB0198AB8FA70FC088EC90E09EA78DA70B
:102460008DA59EA50197F1F79EA78DA78FA598A989
:10247000019798AB8FA78FA598A9009769F714C00B
:1024800069A97AA98BA99CA90E944900DC01CB010A
:1024900098AB8FA78FA598A99CA78BA78BA59CA568
:1024A0000197F1F79CA78BA7EBADFCAD21818EAD19
:1024B000882F90E0FC01E759FE4F9081822F692F11
:1024C0000E94DA0D89AF80E090E0AAEFB3E48FA319
:1024D00098A7A9A7BAA76FA178A589A59AA520E072
:1024E00030E04AEF54E40E941F02DC01CB018BA3D1
:1024F0009CA3ADA3BEA36BA17CA18DA19EA120E056
:1025000030E040E85FE30E94250488232CF481E05A
:1025100090E09AA389A33FC06BA17CA18DA19EA14D
:1025200020E03FEF4FE757E40E94C50318164CF533
:102530006FA178A589A59AA520E030E040E251E49A
:102540000E941F02DC01CB01BC01CD010E944900A9
:10255000DC01CB019AA389A30FC088EC90E098A37B
:102560008F8F8F8D98A10197F1F798A38F8F89A1F5
:102570009AA101979AA389A389A19AA1009769F7C3
:102580003FC16BA17CA18DA19EA10E944900DC01ED
:10259000CB019AA389A389A19AA19E8F8D8F8D8D3E
:1025A0009E8D0197F1F79E8F8D8F2AC1EBADFCAD0B
:1025B0008081813009F024C1EBADFCAD8281EBADAF
:1025C000FCAD9381692F41E00E94D20A8AAF8AADA7
:1025D000813031F08AAD833019F08AAD823019F440
:1025E00081E08FAF0FC1EBADFCAD8281EBADFCADF7
:1025F0009381692F40E00E94E70B89AFEBADFCAD02
:1026000021818DAD882F90E0FC01ED58FE4F908127
:10261000822F692F0E94DA0D89AF80E090E0AAEF47
:10262000B3E4898F9A8FAB8FBC8F698D7A8D8B8D38
:102630009C8D20E030E04AEF54E40E941F02DC0150
:10264000CB018D8B9E8BAF8BB88F6D897E898F89E7
:10265000988D20E030E040E85FE30E942504882365
:102660002CF481E090E09C8B8B8B3FC06D897E8940
:102670008F89988D20E03FEF4FE757E40E94C50314
:1026800018164CF5698D7A8D8B8D9C8D20E030E08D
:1026900040E251E40E941F02DC01CB01BC01CD01EC
:1026A0000E944900DC01CB019C8B8B8B0FC088EC16
:1026B00090E09A8B898B89899A890197F1F79A8B97
:1026C000898B8B899C8901979C8B8B8B8B899C89AF
:1026D000009769F714C06D897E898F89988D0E9453
:1026E0004900DC01CB019C8B8B8B8B899C89988B5F
:1026F0008F878F8598890197F1F7988B8F87EBAD3E
:10270000FCAD21818EAD882F90E0FC01ED58FE4F8D
:102710009081822F692F0E94DA0D89AF80E090E0CE
:10272000AAEFB3E48B879C87AD87BE876B857C85DA
:102730008D859E8520E030E04AEF54E40E941F0220
:10274000DC01CB018F839887A987BA876F81788551
:1027500089859A8520E030E040E85FE30E94250407
:1027600088232CF481E090E09E838D833FC06F81AD
:10277000788589859A8520E03FEF4FE757E40E94EE
:10278000C50318164CF56B857C858D859E8520E0EC
:1027900030E040E251E40E941F02DC01CB01BC01A9
:1027A000CD010E944900DC01CB019E838D830FC0C7
:1027B00088EC90E09C838B838B819C810197F1F75F
:1027C0009C838B838D819E8101979E838D838D81D8
:1027D0009E81009769F714C06F81788589859A85F5
:1027E0000E944900DC01CB019E838D838D819E81F7
:1027F0009A83898389819A810197F1F79A838983E2
:1028000082E08FAF8FADEF960FB6F894DEBF0FBEAC
:10281000CDBFCF91DF910895DF93CF93CDB7DEB7D2
:10282000A3970FB6F894DEBF0FBECDBF9AA389A3BE
:10283000E9A1FAA1818161E00E94900D88A388A19D
:10284000813019F088A1833019F481E08BA392C103
:10285000E9A1FAA18081882309F0C2C0E9A1FAA107
:102860008281E9A1FAA19381692F41E00E94D20AF5
:1028700088A388A1813031F088A1833019F088A124
:10288000823019F481E08BA375C1E9A1FAA182819C
:10289000E9A1FAA19381692F41E00E94E70B8F8F94
:1028A0008F8D813031F08F8D843019F08F8D823093
:1028B00011F41BA25FC11E8E84C0E9A1FAA121817F
:1028C0008E8D882F90E0FC01E759FE4F9081822F7A
:1028D000692F0E94DA0D8F8F80E090E0A6E1B3E4CB
:1028E000898F9A8FAB8FBC8F698D7A8D8B8D9C8DE4
:1028F00020E030E04AEF54E40E941F02DC01CB01EB
:102900008D8B9E8BAF8BB88F6D897E898F89988DCB
:1029100020E030E040E85FE30E94250488232CF4A7
:1029200081E090E09C8B8B8B3FC06D897E898F8985
:10293000988D20E03FEF4FE757E40E94C50318163B
:102940004CF5698D7A8D8B8D9C8D20E030E040E2D6
:1029500051E40E941F02DC01CB01BC01CD010E94A9
:102960004900DC01CB019C8B8B8B0FC088EC90E085
:102970009A8B898B89899A890197F1F79A8B898B30
:102980008B899C8901979C8B8B8B8B899C89009769
:1029900069F714C06D897E898F89988D0E944900DE
:1029A000DC01CB019C8B8B8B8B899C89988B8F87CF
:1029B0008F8598890197F1F7988B8F878E8D8F5F20
:1029C0008E8F8E8D8A3008F478CF8F8D813019F0FC
:1029D0008F8D843011F41BA2CDC082E08BA3CAC0BE
:1029E000E9A1FAA18081813009F0C2C0E9A1FAA170
:1029F0008281E9A1FAA19381692F41E00E94D20A64
:102A000088A388A1813031F088A1833019F088A192
:102A1000823019F481E08BA3ADC0E9A1FAA18281D3
:102A2000E9A1FAA19381692F40E00E94E70B8F8F03
:102A30008F8D813031F08F8D843019F08F8D823001
:102A400011F41BA297C01D8E84C0E9A1FAA12181B7
:102A50008D8D882F90E0FC01ED58FE4F9081822FE4
:102A6000692F0E94DA0D8F8F80E090E0A6E1B3E439
:102A70008B879C87AD87BE876B857C858D859E8582
:102A800020E030E04AEF54E40E941F02DC01CB0159
:102A90008F839887A987BA876F81788589859A857A
:102AA00020E030E040E85FE30E94250488232CF416
:102AB00081E090E09E838D833FC06F81788589851A
:102AC0009A8520E03FEF4FE757E40E94C5031816B0
:102AD0004CF56B857C858D859E8520E030E040E25D
:102AE00051E40E941F02DC01CB01BC01CD010E9418
:102AF0004900DC01CB019E838D830FC088EC90E000
:102B00009C838B838B819C810197F1F79C838B83C2
:102B10008D819E8101979E838D838D819E810097FB
:102B200069F714C06F81788589859A850E9449006C
:102B3000DC01CB019E838D838D819E819A83898365
:102B400089819A810197F1F79A8389838D8D8F5FAF
:102B50008D8F8D8D8A3008F478CF8F8D813019F06C
:102B60008F8D843011F41BA205C082E08BA302C0BC
:102B700082E08BA38BA1A3960FB6F894DEBF0FBEA5
:102B8000CDBFCF91DF910895DF93CF9300D000D0D8
:102B90000F92CDB7DEB79C838B83EB81FC81808164
:102BA000EB81FC819181692F41E00E94D20A8A83E6
:102BB0008A81813031F08A81833019F08A818230B4
:102BC00019F486E08D833EC0EB81FC8182818823ED
:102BD000C9F4EB81FC818081EB81FC819181692FBB
:102BE00041E00E94E70B89838981813031F089813E
:102BF000843019F08981823019F481E08D8322C0FC
:102C00001D8220C0EB81FC8182818130C9F4EB817F
:102C1000FC818081EB81FC819181692F40E00E94E1
:102C2000E70B89838981813031F08981843019F003
:102C30008981823019F481E08D8304C01D8202C035
:102C400084E08D838D810F900F900F900F900F90E7
:102C5000CF91DF910895DF93CF9300D000D0CDB70F
:102C6000DEB79B838A83EA81FB8182818823D1F44A
:102C7000EA81FB818081EA81FB819181692F40E0BB
:102C80000E94E70B89838981813031F0898184300A
:102C900019F08981823019F483E08C8324C082E0AA
:102CA0008C8321C0EA81FB8182818130D1F4EA8169
:102CB000FB818081EA81FB819181692F41E00E9443
:102CC000E70B89838981813031F08981843019F063
:102CD0008981823019F483E08C8305C082E08C8383
:102CE00002C084E08C838C810F900F900F900F9026
:102CF000CF91DF910895DF93CF93CDB7DEB76F9774
:102D00000FB6F894DEBF0FBECDBF8D8F7F8F6E8F55
:102D1000EE8DFF8D8081EE8DFF8D9181692F40E0DA
:102D20000E94E70BEE8DFF8D8281EE8DFF8D9381EA
:102D3000692F40E00E94E70BEE8DFF8D86816D8D3F
:102D40000E94DA0DEE8DFF8D8481EE8DFF8D9581D1
:102D5000692F41E00E94E70B80E090E0A0E8BFE32C
:102D6000898F9A8FAB8FBC8F698D7A8D8B8D9C8D5F
:102D700020E030E04AEF54E40E941F02DC01CB0166
:102D80008D8B9E8BAF8BB88F6D897E898F89988D47
:102D900020E030E040E85FE30E94250488232CF423
:102DA00081E090E09C8B8B8B3FC06D897E898F8901
:102DB000988D20E03FEF4FE757E40E94C5031816B7
:102DC0004CF5698D7A8D8B8D9C8D20E030E040E252
:102DD00051E40E941F02DC01CB01BC01CD010E9425
:102DE0004900DC01CB019C8B8B8B0FC088EC90E001
:102DF0009A8B898B89899A890197F1F79A8B898BAC
:102E00008B899C8901979C8B8B8B8B899C890097E4
:102E100069F714C06D897E898F89988D0E94490059
:102E2000DC01CB019C8B8B8B8B899C89988B8F874A
:102E30008F8598890197F1F7988B8F87EE8DFF8D9D
:102E40008481EE8DFF8D9581692F40E00E94E70B14
:102E500080E090E0A0E8BFE38B879C87AD87BE87CA
:102E60006B857C858D859E8520E030E04AEF54E4BB
:102E70000E941F02DC01CB018F839887A987BA8744
:102E80006F81788589859A8520E030E040E85FE3AE
:102E90000E94250488232CF481E090E09E838D839A
:102EA0003FC06F81788589859A8520E03FEF4FE7A5
:102EB00057E40E94C50318164CF56B857C858D85FB
:102EC0009E8520E030E040E251E40E941F02DC01D8
:102ED000CB01BC01CD010E944900DC01CB019E83E6
:102EE0008D830FC088EC90E09C838B838B819C81C9
:102EF0000197F1F79C838B838D819E8101979E833F
:102F00008D838D819E81009769F714C06F817885CC
:102F100089859A850E944900DC01CB019E838D83BF
:102F20008D819E819A83898389819A810197F1F7A6
:102F30009A8389838D8D813039F42E8D3F8D80E089
:102F400060E0A9010E94971E6F960FB6F894DEBF4D
:102F50000FBECDBFCF91DF9108950F931F93DF93E5
:102F6000CF93CDB7DEB7C955D0400FB6F894DEBFCA
:102F70000FBECDBFFE01EB5AFF4F8083FE01EA5A20
:102F8000FF4F71836083FE01E85AFF4F51834083F6
:102F9000FE01E85AFF4F0190F081E02D80818823E7
:102FA00009F012C3FE01E85AFF4F0190F081E02DB5
:102FB0008181813009F008C38091A401803108F03B
:102FC000A3C18091A201FE01EA5AFF4F2081318105
:102FD00060E0A9010E94971EFE01EA5AFF4F01908E
:102FE000F081E02D8081FE01EA5AFF4F0190F081CF
:102FF000E02D9181692F41E00E94E70BFE01EA5A22
:10300000FF4F0190F081E02D8281FE01EA5AFF4FCF
:103010000190F081E02D9381692F40E00E94E70B41
:10302000FE01EA5AFF4F0190F081E02D8681FE01FA
:10303000EB5AFF4F60810E94DA0DFE01EA5AFF4F02
:103040000190F081E02D8481FE01EA5AFF4F01904A
:10305000F081E02D9581692F41E00E94E70BFE0190
:10306000EF5AFF4F80E090E0A0E8BFE380839183B8
:10307000A283B3838E01035B1F4FFE01EF5AFF4F04
:10308000608171818281938120E030E04AEF54E4D5
:103090000E941F02DC01CB01F80180839183A2838F
:1030A000B383FE01E35BFF4F608171818281938175
:1030B00020E030E040E85FE30E942504882344F4E8
:1030C000FE01E55BFF4F81E090E09183808364C067
:1030D000FE01E35BFF4F608171818281938120E07B
:1030E0003FEF4FE757E40E94C50318160CF043C0AA
:1030F000FE01EF5AFF4F608171818281938120E050
:1031000030E040E251E40E941F02DC01CB018E015D
:10311000055B1F4FBC01CD010E944900DC01CB01C2
:10312000F801918380831FC0FE01E75BFF4F88ECAD
:1031300090E091838083FE01E75BFF4F8081918166
:103140000197F1F7FE01E75BFF4F91838083DE017A
:10315000A55BBF4FFE01E55BFF4F80819181019729
:1031600011969C938E93FE01E55BFF4F80819181C8
:103170000097D1F627C08E01055B1F4FFE01E35B70
:10318000FF4F60817181828193810E944900DC013F
:10319000CB01F80191838083DE01A95BBF4FFE0163
:1031A000E55BFF4F808191818D939C93FE01E95BEC
:1031B000FF4F808191810197F1F7FE01E95BFF4F9D
:1031C00091838083FE01EA5AFF4F0190F081E02D48
:1031D0008481FE01EA5AFF4F0190F081E02D958134
:1031E000692F40E00E94E70BFE01ED5BFF4F80E09E
:1031F00090E0A0E8BFE380839183A283B3838E0134
:10320000015C1F4FFE01ED5BFF4F60817181828188
:10321000938120E030E04AEF54E40E941F02DC0179
:10322000CB01F80180839183A283B383FE01FF96D3
:10323000608171818281938120E030E040E85FE32A
:103240000E94250488232CF481E090E09EAF8DAF8E
:1032500046C0FE01FF96608171818281938120E0EA
:103260003FEF4FE757E40E94C503181664F5FE01CF
:10327000ED5BFF4F608171818281938120E030E0BE
:1032800040E251E40E941F02DC01CB01BC01CD01F0
:103290000E944900DC01CB019EAF8DAF0FC088ECCE
:1032A00090E09CAF8BAF8BAD9CAD0197F1F79CAFDD
:1032B0008BAF8DAD9EAD01979EAF8DAF8DAD9EADA9
:1032C000009769F716C0FE01FF96608171818281C7
:1032D00093810E944900DC01CB019EAF8DAF8DAD83
:1032E0009EAD9AAF89AF89AD9AAD0197F1F79AAFCC
:1032F00089AF8091A4018F5F8093A4018091A20186
:103300008F5F8093A201C8C28091A401803108F42C
:1033100054C18091A401803208F04FC18091A30173
:10332000FE01EA5AFF4F2081318161E0A9010E942C
:10333000971EFE01EA5AFF4F0190F081E02D808137
:10334000FE01EA5AFF4F0190F081E02D9181692F33
:1033500041E00E94E70BFE01EA5AFF4F0190F08125
:10336000E02D8281FE01EA5AFF4F0190F081E02DAD
:103370009381692F40E00E94E70BFE01EA5AFF4F5C
:103380000190F081E02D8681FE01EB5AFF4F6081B4
:103390000E94DA0DFE01EA5AFF4F0190F081E02D04
:1033A0008481FE01EA5AFF4F0190F081E02D958162
:1033B000692F41E00E94E70B80E090E0A0E8BFE3C6
:1033C0008DAB9EABAFABB8AF6DA97EA98FA998AD01
:1033D00020E030E04AEF54E40E941F02DC01CB0100
:1033E00089AB9AABABABBCAB69A97AA98BA99CA9F9
:1033F00020E030E040E85FE30E94250488232CF4BD
:1034000081E090E098AB8FA73FC069A97AA98BA90A
:103410009CA920E03FEF4FE757E40E94C503181630
:103420004CF56DA97EA98FA998AD20E030E040E26F
:1034300051E40E941F02DC01CB01BC01CD010E94BE
:103440004900DC01CB0198AB8FA70FC088EC90E05E
:103450009EA78DA78DA59EA50197F1F79EA78DA785
:103460008FA598A9019798AB8FA78FA598A90097CA
:1034700069F714C069A97AA98BA99CA90E9449007F
:10348000DC01CB0198AB8FA78FA598A99CA78BA730
:103490008BA59CA50197F1F79CA78BA7FE01EA5A83
:1034A000FF4F0190F081E02D8481FE01EA5AFF4F29
:1034B0000190F081E02D9581692F40E00E94E70B9B
:1034C00080E090E0A0E8BFE38FA398A7A9A7BAA7E0
:1034D0006FA178A589A59AA520E030E04AEF54E4D1
:1034E0000E941F02DC01CB018BA39CA3ADA3BEA352
:1034F0006BA17CA18DA19EA120E030E040E85FE3BC
:103500000E94250488232CF481E090E09AA389A3EB
:103510003FC06BA17CA18DA19EA120E03FEF4FE7B2
:1035200057E40E94C50318164CF56FA178A589A52C
:103530009AA520E030E040E251E40E941F02DC0145
:10354000CB01BC01CD010E944900DC01CB019AA353
:1035500089A30FC088EC90E098A38F8F8F8D98A1DE
:103560000197F1F798A38F8F89A19AA101979AA348
:1035700089A389A19AA1009769F714C06BA17CA1C6
:103580008DA19EA10E944900DC01CB019AA389A3D1
:1035900089A19AA19E8F8D8F8D8D9E8D0197F1F7B8
:1035A0009E8F8D8F8091A4018F5F8093A401809165
:1035B000A3018F5F8093A3016FC11092A4011092A9
:1035C000A2011092A30168C1FE01E85AFF4F0190C9
:1035D000F081E02D8081813009F05EC1FE01E85A62
:1035E000FF4F0190F081E02D8181882309F054C1C3
:1035F0008091A401803108F04BC1FE01EB5AFF4FCE
:103600008081882309F444C1FE01EA5AFF4F0190EA
:10361000F081E02D8081FE01EA5AFF4F0190F08198
:10362000E02D9181692F41E00E94E70BFE01EA5AEB
:10363000FF4F0190F081E02D8281FE01EA5AFF4F99
:103640000190F081E02D9381692F40E00E94E70B0B
:10365000FE01EA5AFF4F0190F081E02D8681FE01C4
:10366000EB5AFF4F60810E94DA0DFE01EA5AFF4FCC
:103670000190F081E02D8481FE01EA5AFF4F019014
:10368000F081E02D9581692F41E00E94E70B80E0F9
:1036900090E0A0E8BFE3898F9A8FAB8FBC8F698DD4
:1036A0007A8D8B8D9C8D20E030E04AEF54E40E94AF
:1036B0001F02DC01CB018D8B9E8BAF8BB88F6D8988
:1036C0007E898F89988D20E030E040E85FE30E949A
:1036D000250488232CF481E090E09C8B8B8B3FC0E9
:1036E0006D897E898F89988D20E03FEF4FE757E401
:1036F0000E94C50318164CF5698D7A8D8B8D9C8DB3
:1037000020E030E040E251E40E941F02DC01CB01E6
:10371000BC01CD010E944900DC01CB019C8B8B8B4D
:103720000FC088EC90E09A8B898B89899A890197E0
:10373000F1F79A8B898B8B899C8901979C8B8B8B5A
:103740008B899C89009769F714C06D897E898F8960
:10375000988D0E944900DC01CB019C8B8B8B8B895F
:103760009C89988B8F878F8598890197F1F7988B23
:103770008F87FE01EA5AFF4F0190F081E02D84818E
:10378000FE01EA5AFF4F0190F081E02D9581692FEB
:1037900040E00E94E70B80E090E0A0E8BFE38B8769
:1037A0009C87AD87BE876B857C858D859E8520E057
:1037B00030E04AEF54E40E941F02DC01CB018F830A
:1037C0009887A987BA876F81788589859A8520E04F
:1037D00030E040E85FE30E94250488232CF481E078
:1037E00090E09E838D833FC06F81788589859A851F
:1037F00020E03FEF4FE757E40E94C50318164CF551
:103800006B857C858D859E8520E030E040E251E42B
:103810000E941F02DC01CB01BC01CD010E944900C6
:10382000DC01CB019E838D830FC088EC90E09C83EC
:103830008B838B819C810197F1F79C838B838D8196
:103840009E8101979E838D838D819E81009769F76C
:1038500014C06F81788589859A850E944900DC01B2
:10386000CB019E838D838D819E819A8389838981FB
:103870009A810197F1F79A8389838091A4018F5FE0
:103880008093A4018091A2018F5F8093A20104C064
:103890001092A2011092A40180E0C75ADF4F0FB628
:1038A000F894DEBF0FBECDBFCF91DF911F910F9176
:1038B0000895DF93CF93CDB7DEB7EA970FB6F894AC
:1038C000DEBF0FBECDBF9AAF89AFE9ADFAAD808143
:1038D000E9ADFAAD9181692F41E00E94D20AE9ADCC
:1038E000FAAD8281E9ADFAAD9381692F41E00E9482
:1038F000D20AE9ADFAAD8481E9ADFAAD9581692FBF
:1039000041E00E94D20AE9ADFAAD86816FEF0E94D4
:10391000900D80E090E0A0E2B2E48DAB9EABAFAB47
:10392000B8AF6DA97EA98FA998AD20E030E04AEF2D
:1039300054E40E941F02DC01CB0189AB9AABABAB14
:10394000BCAB69A97AA98BA99CA920E030E040E82A
:103950005FE30E94250488232CF481E090E098AB7B
:103960008FA73FC069A97AA98BA99CA920E03FEF46
:103970004FE757E40E94C50318164CF56DA97EA9C0
:103980008FA998AD20E030E040E251E40E941F0290
:10399000DC01CB01BC01CD010E944900DC01CB015F
:1039A00098AB8FA70FC088EC90E09EA78DA78DA540
:1039B0009EA50197F1F79EA78DA78FA598A90197BE
:1039C00098AB8FA78FA598A9009769F714C069A92C
:1039D0007AA98BA99CA90E944900DC01CB0198AB74
:1039E0008FA78FA598A99CA78BA78BA59CA50197AE
:1039F000F1F79CA78BA729AD3AAD88E3B9010E94E6
:103A00007B1680E090E0A0E8BFE38FA398A7A9A76A
:103A1000BAA76FA178A589A59AA520E030E04AEF62
:103A200054E40E941F02DC01CB018BA39CA3ADA335
:103A3000BEA36BA17CA18DA19EA120E030E040E857
:103A40005FE30E94250488232CF481E090E09AA390
:103A500089A33FC06BA17CA18DA19EA120E03FEF77
:103A60004FE757E40E94C50318164CF56FA178A5DF
:103A700089A59AA520E030E040E251E40E941F02AF
:103A8000DC01CB01BC01CD010E944900DC01CB016E
:103A90009AA389A30FC088EC90E098A38F8F8F8D95
:103AA00098A10197F1F798A38F8F89A19AA1019707
:103AB0009AA389A389A19AA1009769F714C06BA161
:103AC0007CA18DA19EA10E944900DC01CB019AA39B
:103AD00089A389A19AA19E8F8D8F8D8D9E8D01972F
:103AE000F1F79E8F8D8F29AD3AAD8EE0B9010E941E
:103AF0007B1680E090E0A0E8BFE3898F9A8FAB8FC0
:103B0000BC8F698D7A8D8B8D9C8D20E030E04AEFE3
:103B100054E40E941F02DC01CB018D8B9E8BAF8B86
:103B2000B88F6D897E898F89988D20E030E040E8DC
:103B30005FE30E94250488232CF481E090E09C8BB5
:103B40008B8B3FC06D897E898F89988D20E03FEFF8
:103B50004FE757E40E94C50318164CF5698D7A8D1E
:103B60008B8D9C8D20E030E040E251E40E941F02EA
:103B7000DC01CB01BC01CD010E944900DC01CB017D
:103B80009C8B8B8B0FC088EC90E09A8B898B8989FA
:103B90009A890197F1F79A8B898B8B899C89019778
:103BA0009C8B8B8B8B899C89009769F714C06D89DE
:103BB0007E898F89988D0E944900DC01CB019C8B06
:103BC0008B8B8B899C89988B8F878F8598890197A0
:103BD000F1F7988B8F8729AD3AAD81E0B9010E944A
:103BE0007B1680E090E0A0E8BFE38B879C87AD87E1
:103BF000BE876B857C858D859E8520E030E04AEF11
:103C000054E40E941F02DC01CB018F839887A987AF
:103C1000BA876F81788589859A8520E030E040E811
:103C20005FE30E94250488232CF481E090E09E83CA
:103C30008D833FC06F81788589859A8520E03FEF2D
:103C40004FE757E40E94C50318164CF56B857C8539
:103C50008D859E8520E030E040E251E40E941F0205
:103C6000DC01CB01BC01CD010E944900DC01CB018C
:103C70009E838D830FC088EC90E09C838B838B8127
:103C80009C810197F1F79C838B838D819E810197A5
:103C90009E838D838D819E81009769F714C06F810B
:103CA000788589859A850E944900DC01CB019E8335
:103CB0008D838D819E819A83898389819A810197E1
:103CC000F1F79A838983EA960FB6F894DEBF0FBEA8
:103CD000CDBFCF91DF910895DF93CF9300D000D077
:103CE00000D0CDB7DEB79A8389837C836B835E83F4
:103CF0004D830FC0E981FA8180812B813C814D8108
:103D00005E81B9010E94AD1789819A8101969A83DB
:103D10008983E981FA818081882361F726960FB62D
:103D2000F894DEBF0FBECDBFCF91DF910895DF9332
:103D3000CF9300D000D00F92CDB7DEB78A836B83CC
:103D40005D834C8319828B81882319F48A8189834E
:103D500003C08A81805C8983898180682C813D8150
:103D6000B9010E947B160F900F900F900F900F904B
:103D7000CF91DF910895DF93CF93CDB7DEB728972A
:103D80000FB6F894DEBF0FBECDBF9B838A836C83D2
:103D90005E834D8338872F838C81882F90E008962F
:103DA000880F991F880F991F880F991F2D813E81B9
:103DB000B9010E947B16198213C08981282F30E037
:103DC0008A819B81FC01E20FF31F80812D813E815E
:103DD0004F815885B9010E94AD1789818F5F898312
:103DE0008981883050F32D813E8181E061E0A90115
:103DF0000E94971E2D813E814F8158858C81B9018B
:103E00000E94AD1728960FB6F894DEBF0FBECDBF47
:103E1000CF91DF910895DF93CF93CDB7DEB76C9745
:103E20000FB6F894DEBF0FBECDBF6D8B7E8B8F8B30
:103E3000988F5A8F498F3C8F2B8F8AE0FE013B96DB
:103E4000DF01982F1D929A95E9F780E28B871F82F8
:103E5000188619861A8681E089838D899E89AF89A3
:103E6000B88D0097A105B10509F052C0298D3A8D92
:103E70004B8D5C8D80E3B9010E94AD1752C08D89D6
:103E80009E89AF89B88D2AE030E040E050E0BC0167
:103E9000CD010E945C21DC01CB018A838A81282F1D
:103EA00030E040E050E08D899E89AF89B88D821B5B
:103EB000930BA40BB50B8D8B9E8BAF8BB88F8F8123
:103EC0009885A985BA859E01255F3F4FF901E80FC6
:103ED000F91F8A8180838D899E89AF89B88D2AE0F8
:103EE00030E040E050E0BC01CD010E945C21DA01ED
:103EF000C9018D8B9E8BAF8BB88F8F819885A985DB
:103F0000BA850196A11DB11D8F839887A987BA87AD
:103F10008D899E89AF89B88D0097A105B10509F0FB
:103F2000AECF8F819885A985BA850197A109B1097E
:103F30008B839C83AD83BE831FC08B819C81AD81AD
:103F4000BE819E01255F3F4FF901E80FF91F808177
:103F5000805D298D3A8D4B8D5C8DB9010E94AD1726
:103F600089838B819C81AD81BE810197A109B109B3
:103F70008B839C83AD83BE838B819C81AD81BE810D
:103F8000BB23DCF66C960FB6F894DEBF0FBECDBF38
:103F9000CF91DF910895DF93CF9300D000D0CDB7BC
:103FA000DEB79A8389837C836B83E981FA8191816F
:103FB00082E4692F41E00E94D20AE981FA8193816B
:103FC00082E4692F41E00E94D20AE981FA81958159
:103FD00082E4692F41E00E94D20AE981FA81978147
:103FE00082E4692F41E00E94D20AEB81FC81918139
:103FF00082E4692F40E00E94D20AEB81FC81938128
:1040000082E4692F40E00E94D20AEB81FC81958115
:1040100082E4692F40E00E94D20AEB81FC81978103
:1040200082E4692F40E00E94D20AE981FA819181FD
:1040300082E4692F41E00E94E70BE981FA819381D4
:1040400082E4692F41E00E94E70BE981FA819581C2
:1040500082E4692F41E00E94E70BE981FA819781B0
:1040600082E4692F41E00E94E70BEB81FC819181A2
:1040700082E4692F41E00E94E70BEB81FC81938190
:1040800082E4692F41E00E94E70BEB81FC8195817E
:1040900082E4692F41E00E94E70BEB81FC8197816C
:1040A00082E4692F41E00E94E70B0F900F900F9080
:1040B0000F90CF91DF910895DF93CF93CDB7DEB707
:1040C00069970FB6F894DEBF0FBECDBF9C8B8B8B6C
:1040D0007E8B6D8B588F4F8B198AC5C082E469899E
:1040E00040E00E94E70B84E0888BB1C09E012E5E09
:1040F0003F4F82E46889A9010E94FC0C8F8780E011
:1041000090E0A0EFB1E48B879C87AD87BE876B857D
:104110007C858D859E8520E030E04AEF54E40E9446
:104120001F02DC01CB018F839887A987BA876F8133
:10413000788589859A8520E030E040E85FE30E9439
:10414000250488232CF481E090E09E838D833FC07A
:104150006F81788589859A8520E03FEF4FE757E4A6
:104160000E94C50318164CF56B857C858D859E8550
:1041700020E030E040E251E40E941F02DC01CB016C
:10418000BC01CD010E944900DC01CB019E838D83DF
:104190000FC088EC90E09C838B838B819C8101977E
:1041A000F1F79C838B838D819E8101979E838D8304
:1041B0008D819E81009769F714C06F81788589850C
:1041C0009A850E944900DC01CB019E838D838D81FD
:1041D0009E819A83898389819A810197F1F79A83D5
:1041E00089838F85882381F58A89882369F582E40C
:1041F000698941E00E94E70B8989482F50E088894E
:10420000882F90E09C0124503040CA01880F991FEC
:10421000880F991F820F931FFC01E358FE4F808186
:10422000EF89F88D80830BC09E012E5E3F4F82E4A4
:104230006889A9010E94FC0C8A89813019F08A8959
:10424000882391F3198E15C088898F5F888B8889A0
:10425000883008F44BCF82E4698941E00E94E70B83
:1042600089898F5F898B8989843008F437CF81E011
:10427000898F898D69960FB6F894DEBF0FBECDBFCA
:10428000CF91DF910895DF93CF9300D0CDB7DEB704
:104290000E9425100E941408FFCFDF93CF93CDB763
:1042A000DEB7ABE3B0E0EBE3F0E0908181E089279B
:1042B0008C93CF91DF910895A1E21A2EAA1BBB1B0C
:1042C000FD010DC0AA1FBB1FEE1FFF1FA217B307E2
:1042D000E407F50720F0A21BB30BE40BF50B661FF8
:1042E000771F881F991F1A9469F7609570958095BC
:1042F00090959B01AC01BD01CF0108952F923F9293
:104300004F925F926F927F928F929F92AF92BF92E5
:10431000CF92DF92EF92FF920F931F93CF93DF9391
:10432000CDB7DEB7CA1BDB0B0FB6F894DEBF0FBEEE
:10433000CDBF09942A88398848885F846E847D843B
:104340008C849B84AA84B984C884DF80EE80FD803D
:104350000C811B81AA81B981CE0FD11D0FB6F894B3
:0E436000DEBF0FBECDBFED010895F894FFCF74
:10436E00000000000000000000010202030303032E
:10437E0004040404040404040505050505050505E7
:10438E0005050505050505050606060606060606C7
:10439E0006060606060606060606060606060606AF
:1043AE000606060606060606070707070707070797
:1043BE00070707070707070707070707070707077F
:1043CE00070707070707070707070707070707076F
:1043DE00070707070707070707070707070707075F
:1043EE000707070707070707080808080808080847
:1043FE00080808080808080808080808080808082F
:10440E00080808080808080808080808080808081E
:10441E00080808080808080808080808080808080E
:10442E0008080808080808080808080808080808FE
:10443E0008080808080808080808080808080808EE
:10444E0008080808080808080808080808080808DE
:10445E0008080808080808080808080808080808CE
:10446E00080808080808080801C0F9A4B099928243
:10447E00F880903F065B4F666D7D077F6F3738394A
:0E448E002F3435362A3132332D43303D2B008A
:00000001FF
