:100000000C942A000C94A7070C940E070C94750608
:100010000C9447000C9447000C9447000C94470044
:100020000C9447000C9447000C9447000C94CD05A9
:100030000C9447000C9447000C9447000C94470024
:100040000C9447000C9447000C9447000C94470014
:100050000C94470011241FBECFE5D8E0DEBFCDBF12
:1000600010E0A0E6B0E0E4E4FAE302C005900D92EF
:10007000A439B107D9F710E0A4E9B0E001C01D929E
:10008000A33AB107E1F70E94031C0C94201D0C94C5
:100090000000EF92FF920F931F937B018C0120E0F1
:1000A00030E040E05FE40E94490388238CF0C801FF
:1000B000B70120E030E040E05FE40E94C1010E940F
:1000C000A9039B01AC01205030404040504806C07D
:1000D000C801B7010E94A9039B01AC01B901CA0183
:1000E0001F910F91FF90EF900895A0E0B0E0EBE733
:1000F000F0E00C94E91CDC012B01FA019C91923098
:1001000008F439C1EB018881823008F433C194309E
:1001100069F4843009F02FC111969C91119789815F
:10012000981709F428C1A0E6B0E025C1843009F48D
:1001300021C18230A9F4923009F01DC19A01AD01AC
:1001400088E0EA010990AE01E90109929E0181501F
:10015000C1F7E201898111969C918923818308C1AD
:10016000923009F407C112962D903C901397EB0141
:100170008A819B811496AD90BD90CD90DC901797AD
:10018000EC80FD800E811F819101281B390BB90184
:1001900037FF04C066277727621B730B6032710537
:1001A0000CF061C0121613066CF537014801062EDB
:1001B00004C096948794779467940A94D2F721E0C8
:1001C00030E040E050E004C0220F331F441F551FB1
:1001D0006A95D2F721503040404050402E213F21B7
:1001E00040235123211531054105510521F021E01E
:1001F00030E040E050E079018A01E628F72808293C
:1002000019293CC0232BD1F1260E371E350146019A
:10021000062E04C096948794779467940A94D2F734
:1002200021E030E040E050E004C0220F331F441FC3
:10023000551F6A95D2F721503040404050402A2146
:100240003B214C215D21211531054105510521F04E
:1002500021E030E040E050E059016A01A628B728CB
:10026000C828D9280BC0821593052CF01C01AA249C
:10027000BB24650103C0EE24FF24870111969C91E5
:10028000D20111968C91981709F445C0992339F041
:10029000A80197012A193B094C095D0906C0A6016E
:1002A00095012E193F09400B510B57FD08C01182D3
:1002B0003382228224833583468357831DC081E0A5
:1002C00081833382228288279927DC01821B930B4A
:1002D000A40BB50B84839583A683B7830DC0220F2F
:1002E000331F441F551F24833583468357838281E0
:1002F000938101979383828324813581468157813D
:10030000DA01C9010197A109B1098F5F9F4FAF4F72
:10031000BF4328F30BC0918333822282EA0CFB1C7B
:100320000C1D1D1DE482F5820683178383E0808304
:10033000248135814681578157FF1AC0C901AA27F8
:1003400097FDA095BA2F81709070A070B0705695EF
:10035000479537952795822B932BA42BB52B848318
:100360009583A683B7838281938101969383828349
:10037000DF0101C0D201CD01CDB7DEB7E2E10C94BF
:10038000051DA0E2B0E0E7ECF1E00C94F51C6983F8
:100390007A838B839C832D833E834F835887E9E048
:1003A000EE2EF12CEC0EFD1ECE010196B7010E943F
:1003B000D2048E010F5E1F4FCE010596B8010E9438
:1003C000D2048A8991E089278A8BC701B801AE01DE
:1003D000475E5F4F0E9475000E94FD03A096E6E015
:1003E0000C94111DA0E2B0E0E8EFF1E00C94F51CD4
:1003F00069837A838B839C832D833E834F835887C5
:10040000F9E0EF2EF12CEC0EFD1ECE010196B701A6
:100410000E94D2048E010F5E1F4FCE010596B801D7
:100420000E94D204C701B801AE01475E5F4F0E942F
:1004300075000E94FD03A096E6E00C94111DA0E259
:10044000B0E0E5E2F2E00C94E91C69837A838B83E7
:100450009C832D833E834F835887CE010196BE0136
:10046000675F7F4F0E94D204CE010596BE016F5E8A
:100470007F4F0E94D2049985923088F0898982301A
:10048000C8F0943019F4823051F404C0843029F457
:10049000923081F480E690E0C6C0923049F420E0CA
:1004A0009A858A89981321E02A87CE010996BBC0D4
:1004B000823049F420E09A858A89981321E02A8BBA
:1004C000CE014196B0C02D843E844F8458886D88FB
:1004D0007E888F88988CEE24FF248701AA24BB2471
:1004E000650140E050E060E070E0E0E0F0E0C10174
:1004F00081709070892BE9F0E60CF71C081D191D1E
:100500009A01AB012A0D3B1D4C1D5D1D80E090E062
:10051000A0E0B0E0E614F7040805190520F481E036
:1005200090E0A0E0B0E0BA01A901480F591F6A1F8E
:100530007B1FAA0CBB1CCC1CDD1C97FE08C081E0F5
:1005400090E0A0E0B0E0A82AB92ACA2ADB2A3196B6
:10055000E032F10549F0660C771C881C991C569412
:10056000479437942794C3CFFA85EA892B893C892D
:100570008B859C85280F391F2E5F3F4F17C0CA01FE
:1005800081709070892B61F016950795F794E79428
:1005900080E090E0A0E0B0E8E82AF92A0A2B1B2BC3
:1005A00076956795579547952F5F3F4F77FDE7CF36
:1005B0000CC0440F551F661F771F17FD4160EE0CDE
:1005C000FF1C001F111F21503040403090E05907A0
:1005D00090E0690790E4790760F32B8F3C8FDB0193
:1005E000CA018F779070A070B07080349105A1051A
:1005F000B10561F447FD0AC0E114F10401051105DC
:1006000029F0405C5F4F6F4F7F4F40781A8EFE1786
:1006100011F081E08A8F4D8F5E8F6F8F78A383E01A
:10062000898FCE0149960E94FD03A096E2E10C94C9
:10063000051DA8E1B0E0EFE1F3E00C94F51C69833F
:100640007A838B839C832D833E834F83588789E0F5
:10065000E82EF12CEC0EFD1ECE010196B7010E9492
:10066000D2048E010F5E1F4FCE010596B8010E9485
:10067000D2048985823040F08989823028F0C70110
:10068000B8010E944A0501C08FEF6896E6E00C941D
:10069000111DA8E1B0E0EFE4F3E00C94F51C6983D0
:1006A0007A838B839C832D833E834F83588789E095
:1006B000E82EF12CEC0EFD1ECE010196B7010E9432
:1006C000D2048E010F5E1F4FCE010596B8010E9425
:1006D000D2048985823040F08989823028F0C701B0
:1006E000B8010E944A0501C08FEF6896E6E00C94BD
:1006F000111DA8E1B0E0EFE7F3E00C94F51C69836D
:100700007A838B839C832D833E834F83588789E034
:10071000E82EF12CEC0EFD1ECE010196B7010E94D1
:10072000D2048E010F5E1F4FCE010596B8010E94C4
:10073000D2048985823040F08989823028F0C7014F
:10074000B8010E944A0501C081E06896E6E00C9479
:10075000111DACE0B0E0EFEAF3E00C94F91C698302
:100760007A838B839C83CE010196BE016B5F7F4FA2
:100770000E94D2048D81823061F1823050F1843048
:1007800021F48E81882351F12EC02F81388537FDC9
:1007900020C06E812F3131051CF06623F9F023C093
:1007A0008EE190E0821B930B29853A854B855C8511
:1007B00004C056954795379527958A95D2F76623B5
:1007C000B1F050954095309521953F4F4F4F5F4F79
:1007D0000EC020E030E040E050E009C02FEF3FEFD6
:1007E0004FEF5FE704C020E030E040E050E8B9019F
:1007F000CA012C96E2E00C94151DDF92EF92FF9255
:100800000F931F93FC01E480F58006811781D1804E
:100810008081823048F480E090E0A0E1B0E0E82AF6
:10082000F92A0A2B1B2BA5C0843009F49FC0823003
:1008300021F4EE24FF24870105C0E114F104010531
:10084000110519F4E0E0F0E096C0628173819FEF3A
:10085000623879070CF05BC022E83FEF261B370BAC
:100860002A3131052CF020E030E040E050E02AC091
:10087000B801A701022E04C0769567955795479554
:100880000A94D2F781E090E0A0E0B0E004C0880FC5
:10089000991FAA1FBB1F2A95D2F70197A109B10979
:1008A0008E219F21A023B1230097A105B10521F03E
:1008B00081E090E0A0E0B0E09A01AB01282B392B59
:1008C0004A2B5B2BDA01C9018F779070A070B07052
:1008D00080349105A105B10539F427FF09C0205CDA
:1008E0003F4F4F4F5F4F04C0215C3F4F4F4F5F4F13
:1008F000E0E0F0E02030A0E03A07A0E04A07A0E402
:100900005A0710F0E1E0F0E079018A0127C0603871
:10091000710564F5FB01E158FF4FD801C7018F77DE
:100920009070A070B07080349105A105B10539F4C4
:10093000E7FE0DC080E490E0A0E0B0E004C08FE3EB
:1009400090E0A0E0B0E0E80EF91E0A1F1B1F17FFA1
:1009500005C016950795F794E794319687E01695AC
:100960000795F794E7948A95D1F705C0EE24FF2404
:100970008701EFEFF0E06E2F679566276795902F60
:100980009F77D794DD24D7948E2F8695492F462BB9
:10099000582F5D29B701CA011F910F91FF90EF9069
:1009A000DF900895FC01DB01408151812281622F9B
:1009B0006F7770E0221F2227221F9381892F880FD3
:1009C000822B282F30E0991F9927991F11969C930D
:1009D000119721153105A9F54115510561057105DD
:1009E00011F482E037C082E89FEF13969C938E93B8
:1009F00012979A01AB0167E0220F331F441F551F66
:100A00006A95D1F783E08C930DC0220F331F441FEA
:100A1000551F12968D919C911397019713969C9355
:100A20008E931297203080E0380780E0480780E4FA
:100A3000580758F314962D933D934D935C93179755
:100A400008952F3F310579F4411551056105710570
:100A500019F484E08C93089564FF03C081E08C93C3
:100A600012C01C9210C02F57304013963C932E9307
:100A7000129783E08C9387E0440F551F661F771F02
:100A80008A95D1F7706414964D935D936D937C9322
:100A9000179708951F93DC01FB019C91923008F495
:100AA00047C08081823008F443C0943051F41196DD
:100AB0001C91843099F58181682F70E0611B710968
:100AC0003FC0843021F0923031F48230B9F181811D
:100AD000882389F12DC011961C9111978230F1F075
:100AE00081811817D9F412962D913C911397828128
:100AF00093818217930794F028173907BCF0149656
:100B00008D919D910D90BC91A02D248135814681C0
:100B10005781281739074A075B0718F4112341F05A
:100B20000AC082179307A407B50740F4112319F0F0
:100B300061E070E005C06FEF7FEF02C060E070E041
:100B4000CB011F910895DF93CF93CDB7DEB7AFE50B
:100B5000B0E0EFE5F0E0808180688C93A9E5B0E03B
:100B6000E9E5F0E0808181608C93A3E5B0E0E3E506
:100B7000F0E0808180648C93A3E5B0E0E3E5F0E0F1
:100B8000808188608C93A3E5B0E0E3E5F0E08081AC
:100B900080628C93CF91DF9108951F920F920FB6D0
:100BA0000F9211248F939F93AF93BF93EF93FF9373
:100BB000DF93CF93CDB7DEB78091940090919500ED
:100BC000A0919600B09197000196A11DB11D809350
:100BD000940090939500A0939600B0939700ECE555
:100BE000F0E08DE780838091940090919500A09132
:100BF0009600B09197000097A105B10549F4ABE3C9
:100C0000B0E0EBE3F0E0908181E089278C932BC08A
:100C10008091940090919500A0919600B0919700DA
:100C20008A309105A105B10549F4ABE3B0E0EBE3EF
:100C3000F0E0908181E089278C9315C08091940029
:100C400090919500A0919600B09197008431910504
:100C5000A105B10541F410929400109295001092F4
:100C6000960010929700CF91DF91FF91EF91BF9185
:100C7000AF919F918F910F900FBE0F901F9018957D
:100C8000DF93CF93CDB7DEB70E94DA07ABE5B0E0D4
:100C9000EBE5F0E0808180628C93A4E5B0E0E4E5D0
:100CA000F0E0808180648C93CF91DF910895DF9391
:100CB000CF9300D00F92CDB7DEB79A838983898115
:100CC0009A81009749F080919800909199009A83B9
:100CD000898381E08B8302C082E08B838B810F90BC
:100CE0000F900F90CF91DF9108951F920F920FB642
:100CF0000F9211242F933F934F935F936F937F93A2
:100D00008F939F93AF93BF93EF93FF93DF93CF9313
:100D1000CDB7DEB78091980090919900009729F0A7
:100D2000E0919800F09199000995CF91DF91FF91A2
:100D3000EF91BF91AF919F918F917F916F915F9153
:100D40004F913F912F910F900FBE0F901F901895CC
:100D5000DF93CF93CDB7DEB70E94DA07ABE5B0E003
:100D6000EBE5F0E0808180688C93A5E5B0E0E5E5F7
:100D7000F0E080818B7F8C93A5E5B0E0E5E5F0E0C5
:100D80008081877F8C93A5E5B0E0E5E5F0E0808188
:100D900084608C93A5E5B0E0E5E5F0E08081877F95
:100DA0008C93A5E5B0E0E5E5F0E080818B7F8C9346
:100DB000A5E5B0E0E5E5F0E0808188608C93A5E5ED
:100DC000B0E0E5E5F0E0808184608C93A5E5B0E0DB
:100DD000E5E5F0E0808188608C93CF91DF91089504
:100DE000DF93CF9300D00F92CDB7DEB79A8389837C
:100DF00089819A81009749F080919A0090919B0097
:100E00009A83898381E08B8302C082E08B838B810C
:100E10000F900F900F90CF91DF9108951F920F9236
:100E20000FB60F9211242F933F934F935F936F93BD
:100E30007F938F939F93AF93BF93EF93FF93DF9332
:100E4000CF93CDB7DEB780919A0090919B00009729
:100E500029F0E0919A00F0919B000995CF91DF91E4
:100E6000FF91EF91BF91AF919F918F917F916F9182
:100E70005F914F913F912F910F900FBE0F901F9058
:100E80001895DF93CF93CDB7DEB70E94DA07ABE5B5
:100E9000B0E0EBE5F0E0808180648C93A5E5B0E004
:100EA000E5E5F0E080818E7F8C93A5E5B0E0E5E597
:100EB000F0E080818D7F8C93A5E5B0E0E5E5F0E082
:100EC000808181608C93A5E5B0E0E5E5F0E080816C
:100ED0008D7F8C93A5E5B0E0E5E5F0E080818E7F25
:100EE0008C93A5E5B0E0E5E5F0E0808182608C932D
:100EF000A5E5B0E0E5E5F0E0808181608C93A5E5B3
:100F0000B0E0E5E5F0E0808182608C93CF91DF91E5
:100F10000895DF93CF9300D00F92CDB7DEB79A83B9
:100F2000898389819A81009749F080919C009091F2
:100F30009D009A83898381E08B8302C082E08B834A
:100F40008B810F900F900F90CF91DF9108951F929A
:100F50000F920FB60F9211242F933F934F935F93ED
:100F60006F937F938F939F93AF93BF93EF93FF9371
:100F7000DF93CF93CDB7DEB780919C0090919D0019
:100F8000009729F0E0919C00F0919D000995CF9188
:100F9000DF91FF91EF91BF91AF919F918F917F91E1
:100FA0006F915F914F913F912F910F900FBE0F90D6
:100FB0001F901895DF93CF93CDB7DEB7AFE5B0E0C4
:100FC000EFE5F0E0808180688C93CF91DF91089508
:100FD000DF93CF93CDB7DEB728970FB6F894DEBF77
:100FE0000FBECDBF89836A834B838A81883008F026
:100FF000F8C08B81813009F073C08981282F30E0DF
:1010000038872F838F8198858234910551F12F8104
:1010100038852334310534F48F81988581349105E6
:1010200061F05BC02F8138852334310571F18F81E8
:10103000988584349105E9F150C0AAE3B0E0EAE371
:10104000F0E08081482F8A81282F30E081E090E015
:10105000022E02C0880F991F0A94E2F7842B8C930A
:10106000BEC0A7E3B0E0E7E3F0E08081482F8A81CB
:10107000282F30E081E090E0022E02C0880F991FF7
:101080000A94E2F7842B8C93AAC0A4E3B0E0E4E3D3
:10109000F0E08081482F8A81282F30E081E090E0C5
:1010A000022E02C0880F991F0A94E2F7842B8C93BA
:1010B00096C0A1E3B0E0E1E3F0E08081482F8A81AF
:1010C000282F30E081E090E0022E02C0880F991FA7
:1010D0000A94E2F7842B8C9382C091E09E8383C0B4
:1010E0008B81882309F078C08981282F30E03D83E7
:1010F0002C838C819D818234910561F12C813D810D
:101100002334310534F48C819D818134910569F05B
:1011100060C02C813D812334310589F18C819D8112
:101120008434910509F440C054C0AAE3B0E0EAE376
:10113000F0E08081482F8A81282F30E081E090E024
:10114000022E02C0880F991F0A94E2F7809584232B
:101150008C9345C0A7E3B0E0E7E3F0E08081482F3F
:101160008A81282F30E081E090E0022E02C0880FB3
:10117000991F0A94E2F7809584238C9330C0A4E3EE
:10118000B0E0E4E3F0E08081482F8A81282F30E04E
:1011900081E090E0022E02C0880F991F0A94E2F7C6
:1011A000809584238C931BC0A1E3B0E0E1E3F0E0E1
:1011B0008081482F8A81282F30E081E090E0022E44
:1011C00002C0880F991F0A94E2F7809584238C93BC
:1011D00006C091E09E8307C023E02E8304C01E82D8
:1011E00002C032E03E838E8128960FB6F894DEBFAF
:1011F0000FBECDBFCF91DF910895DF93CF93CDB7D1
:10120000DEB728970FB6F894DEBF0FBECDBF898337
:101210006A834B838A81883008F0F8C08B818130E3
:1012200009F073C08981282F30E038872F838F81A0
:1012300098858234910551F12F8138852334310509
:1012400034F48F8198858134910561F05BC02F81E2
:1012500038852334310571F18F8198858434910567
:10126000E9F150C0ABE3B0E0EBE3F0E08081482F60
:101270008A81282F30E081E090E0022E02C0880FA2
:10128000991F0A94E2F7842B8C93BEC0A8E3B0E0C8
:10129000E8E3F0E08081482F8A81282F30E081E068
:1012A00090E0022E02C0880F991F0A94E2F7842B67
:1012B0008C93AAC0A5E3B0E0E5E3F0E08081482F7D
:1012C0008A81282F30E081E090E0022E02C0880F52
:1012D000991F0A94E2F7842B8C9396C0A2E3B0E0A6
:1012E000E2E3F0E08081482F8A81282F30E081E01E
:1012F00090E0022E02C0880F991F0A94E2F7842B17
:101300008C9382C091E09E8383C08B81882309F0F7
:1013100078C08981282F30E03D832C838C819D818A
:101320008234910561F12C813D812334310534F4FF
:101330008C819D818134910569F060C02C813D8153
:101340002334310589F18C819D818434910509F420
:1013500040C054C0ABE3B0E0EBE3F0E08081482F45
:101360008A81282F30E081E090E0022E02C0880FB1
:10137000991F0A94E2F7809584238C9345C0A8E3D3
:10138000B0E0E8E3F0E08081482F8A81282F30E048
:1013900081E090E0022E02C0880F991F0A94E2F7C4
:1013A000809584238C9330C0A5E3B0E0E5E3F0E0C2
:1013B0008081482F8A81282F30E081E090E0022E42
:1013C00002C0880F991F0A94E2F7809584238C93BA
:1013D0001BC0A2E3B0E0E2E3F0E08081482F8A8105
:1013E000282F30E081E090E0022E02C0880F991F84
:1013F0000A94E2F7809584238C9306C091E09E8343
:1014000007C024E02E8304C01E8202C032E03E8367
:101410008E8128960FB6F894DEBF0FBECDBFCF9158
:10142000DF910895DF93CF93CDB7DEB727970FB63F
:10143000F894DEBF0FBECDBF89836A835C834B8384
:101440008A81883008F076C08981282F30E03F8378
:101450002E834E815F814234510559F18E819F81E7
:101460008334910534F42E813F812134310569F0B4
:101470005CC04E815F814334510579F18E819F813B
:101480008434910509F43DC050C0E9E3F0E0808167
:10149000282F30E08A81882F90E0A90102C055955D
:1014A00047958A95E2F7CA018170EB81FC818083C0
:1014B0003FC0E6E3F0E08081282F30E08A81882F6A
:1014C00090E0A90102C0559547958A95E2F7CA01B7
:1014D0008170EB81FC8180832BC0E3E3F0E08081AD
:1014E000282F30E08A81882F90E0A90102C055950D
:1014F00047958A95E2F7CA018170EB81FC81808370
:1015000017C0E0E3F0E08081282F30E08A81882F47
:1015100090E0A90102C0559547958A95E2F7CA0166
:101520008170EB81FC81808303C051E05D8304C046
:101530001D8202C082E08D838D8127960FB6F894BC
:10154000DEBF0FBECDBFCF91DF910895DF93CF9364
:1015500000D000D00F92CDB7DEB789836A8389812E
:10156000282F30E03D832C838C819D81823491052E
:10157000D9F02C813D812334310534F48C819D8157
:101580008134910561F01FC02C813D8123343105E8
:1015900081F08C819D818434910581F014C0EAE34F
:1015A000F0E08A81808312C0E7E3F0E08A818083E3
:1015B0000DC0E4E3F0E08A81808308C0E1E3F0E05D
:1015C0008A81808303C091E09B8301C01B828B8151
:1015D0000F900F900F900F900F90CF91DF91089583
:1015E000DF93CF9300D000D00F92CDB7DEB78983C1
:1015F0006A838981282F30E03D832C838C819D81F3
:1016000082349105D9F02C813D812334310534F4A5
:101610008C819D818134910561F01FC02C813D81B9
:101620002334310581F08C819D818434910581F0D2
:1016300014C0EBE3F0E08A81808312C0E8E3F0E0BD
:101640008A8180830DC0E5E3F0E08A81808308C051
:10165000E2E3F0E08A81808303C091E09B8301C0D4
:101660001B828B810F900F900F900F900F90CF9156
:10167000DF910895DF93CF9300D000D000D0CDB795
:10168000DEB789837B836A838A819B81009709F413
:1016900041C08981282F30E03E832D838D819E813A
:1016A00082349105E9F02D813E812334310534F4F3
:1016B0008D819E818134910561F027C02D813E810D
:1016C00023343105A1F08D819E8184349105B1F0E0
:1016D0001CC0E9E3F0E08081EA81FB81808318C0CF
:1016E000E6E3F0E08081EA81FB81808311C0E3E3DF
:1016F000F0E08081EA81FB8180830AC0E0E3F0E0D2
:101700008081EA81FB81808303C091E09C8304C0D7
:101710001C8202C025E02C838C8126960FB6F8949B
:10172000DEBF0FBECDBFCF91DF910895DF93CF9382
:10173000CDB7DEB7A7E2B0E0E7E2F0E080818F7BD3
:101740008C93A7E2B0E0E7E2F0E080818F778C93A2
:10175000A7E2B0E0E7E2F0E0808180628C93A6E24D
:10176000B0E0E6E2F0E08081887F8C93A6E2B0E012
:10177000E6E2F0E0808182608C93A6E2B0E0E6E2EF
:10178000F0E0808180688C93CF91DF910895DF93A2
:10179000CF930F92CDB7DEB78983A7E2B0E0E7E23F
:1017A000F0E08081807E8C93A7E2B0E0E7E2F0E099
:1017B00090818981892B8C93A6E2B0E0E6E2F0E08B
:1017C000808180648C93E6E2F0E0808182958F7066
:1017D000882F90E0817090700097A9F3A6E2B0E0A6
:1017E000E6E2F0E0808180618C93E5E2F0E08081C8
:1017F0000F90CF91DF910895DF93CF93CDB7DEB7F0
:1018000029970FB6F894DEBF0FBECDBF9D838C83A2
:101810007F836E83CE0103969F838E83EC81FD814F
:1018200082818823D1F5EC81FD818081EC81FD816D
:101830009181692F40E00E94E8078A838A81813084
:1018400031F08A81833019F08A81823011F4188650
:1018500079C0EC81FD818081EC81FD819181692FCE
:1018600041E00E94FD08EC81FD818081EC81FD81D9
:1018700091819E012D5F3F4F692FA9010E94120A9D
:1018800089838981823019F08981813019F481E05E
:10189000888758C082E0888755C0EC81FD818281AD
:1018A000813029F5EC81FD818081EC81FD81918180
:1018B000692F40E00E94E8078A83EC81FD818081E6
:1018C000EC81FD8191819E012D5F3F4F692FA90120
:1018D0000E94120A89838981823019F089818130BE
:1018E00019F481E088872EC082E088872BC0EC81C4
:1018F000FD818281823029F5EC81FD818081EC813E
:10190000FD819181692F40E00E94E8078A83EC8184
:10191000FD818081EC81FD8191819E012D5F3F4F92
:10192000692FA9010E94120A89838981823019F0E6
:101930008981813019F481E0888704C082E088873A
:1019400001C002C088858987898529960FB6F894D9
:10195000DEBF0FBECDBFCF91DF910895DF93CF9350
:1019600000D000D000D0CDB7DEB78B837D836C83F1
:10197000EC81FD81818161E00E94A60A8A838A81CF
:10198000813019F08A81833019F481E08E838CC014
:10199000EC81FD818081882309F03FC0EC81FD81CD
:1019A0008281EC81FD819381692F41E00E94E807EB
:1019B0008A838A81813031F08A81833019F08A816B
:1019C000823019F481E08E836FC0EC81FD818281C9
:1019D000EC81FD819381692F41E00E94FD0889839C
:1019E0008981813031F08981843019F08981823098
:1019F00011F41E8259C0EC81FD8121818B81882FD9
:101A000090E0FC01E859FF4F9081822F692F0E94DE
:101A1000F00A898382E08E8347C0EC81FD8180815A
:101A2000813009F03FC0EC81FD818281EC81FD8134
:101A30009381692F41E00E94E8078A838A8181307F
:101A400031F08A81833019F08A81823019F481E083
:101A50008E832AC0EC81FD818281EC81FD8193819E
:101A6000692F40E00E94FD0889838981813031F02F
:101A70008981843019F08981823011F41E8214C06A
:101A8000EC81FD8121818B81882F90E0FC01EE5853
:101A9000FF4F9081822F692F0E94F00A898382E094
:101AA0008E8302C082E08E838E8126960FB6F894D4
:101AB000DEBF0FBECDBFCF91DF910895DF93CF93EF
:101AC000CDB7DEB7EF970FB6F894DEBF0FBECDBF30
:101AD0009CAF8BAF6DAF4EAFEBADFCAD818161E0E4
:101AE0000E94A60A8AAD813019F08AAD833019F4BC
:101AF00081E08FAF57C2EBADFCAD8081882309F048
:101B000025C1EBADFCAD8281EBADFCAD9381692FBE
:101B100041E00E94E8078AAF8AAD813031F08AAD9A
:101B2000833019F08AAD823019F481E08FAF3AC268
:101B3000EBADFCAD8281EBADFCAD9381692F41E053
:101B40000E94FD0889AFEBADFCAD21818DAD882FE2
:101B500090E0FC01E859FF4F9081822F692F0E948D
:101B6000F00A89AF80E090E0AAEFB3E48DAB9EABC2
:101B7000AFABB8AF6DA97EA98FA998AD20E030E0DA
:101B80004AEF54E40E941F02DC01CB0189AB9AABFF
:101B9000ABABBCAB69A97AA98BA99CA920E030E0CA
:101BA00040E85FE30E94790388232CF481E090E011
:101BB00098AB8FA73FC069A97AA98BA99CA920E0FF
:101BC0003FEF4FE757E40E94190318164CF56DA933
:101BD0007EA98FA998AD20E030E040E251E40E9458
:101BE0001F02DC01CB01BC01CD010E944900DC01D8
:101BF000CB0198AB8FA70FC088EC90E09EA78DA774
:101C00008DA59EA50197F1F79EA78DA78FA598A9F1
:101C1000019798AB8FA78FA598A9009769F714C073
:101C200069A97AA98BA99CA90E944900DC01CB0172
:101C300098AB8FA78FA598A99CA78BA78BA59CA5D0
:101C40000197F1F79CA78BA7EBADFCAD21818EAD81
:101C5000882F90E0FC01E859FF4F9081822F692F77
:101C60000E94F00A89AF80E090E0AAEFB3E48FA36E
:101C700098A7A9A7BAA76FA178A589A59AA520E0DA
:101C800030E04AEF54E40E941F02DC01CB018BA339
:101C90009CA3ADA3BEA36BA17CA18DA19EA120E0BE
:101CA00030E040E85FE30E94790388232CF481E070
:101CB00090E09AA389A33FC06BA17CA18DA19EA1B6
:101CC00020E03FEF4FE757E40E94190318164CF548
:101CD0006FA178A589A59AA520E030E040E251E403
:101CE0000E941F02DC01CB01BC01CD010E94490012
:101CF000DC01CB019AA389A30FC088EC90E098A3E4
:101D00008F8F8F8D98A10197F1F798A38F8F89A15D
:101D10009AA101979AA389A389A19AA1009769F72B
:101D20003FC16BA17CA18DA19EA10E944900DC0155
:101D3000CB019AA389A389A19AA19E8F8D8F8D8DA6
:101D40009E8D0197F1F79E8F8D8F2AC1EBADFCAD73
:101D50008081813009F024C1EBADFCAD8281EBAD17
:101D6000FCAD9381692F41E00E94E8078AAF8AADFC
:101D7000813031F08AAD833019F08AAD823019F4A8
:101D800081E08FAF0FC1EBADFCAD8281EBADFCAD5F
:101D90009381692F40E00E94FD0889AFEBADFCAD57
:101DA00021818DAD882F90E0FC01EE58FF4F90818E
:101DB000822F692F0E94F00A89AF80E090E0AAEF9D
:101DC000B3E4898F9A8FAB8FBC8F698D7A8D8B8DA1
:101DD0009C8D20E030E04AEF54E40E941F02DC01B9
:101DE000CB018D8B9E8BAF8BB88F6D897E898F8950
:101DF000988D20E030E040E85FE30E94790388237B
:101E00002CF481E090E09C8B8B8B3FC06D897E89A8
:101E10008F89988D20E03FEF4FE757E40E94190328
:101E200018164CF5698D7A8D8B8D9C8D20E030E0F5
:101E300040E251E40E941F02DC01CB01BC01CD0154
:101E40000E944900DC01CB019C8B8B8B0FC088EC7E
:101E500090E09A8B898B89899A890197F1F79A8BFF
:101E6000898B8B899C8901979C8B8B8B8B899C8917
:101E7000009769F714C06D897E898F89988D0E94BB
:101E80004900DC01CB019C8B8B8B8B899C89988BC7
:101E90008F878F8598890197F1F7988B8F87EBADA6
:101EA000FCAD21818EAD882F90E0FC01EE58FF4FF4
:101EB0009081822F692F0E94F00A89AF80E090E024
:101EC000AAEFB3E48B879C87AD87BE876B857C8543
:101ED0008D859E8520E030E04AEF54E40E941F0289
:101EE000DC01CB018F839887A987BA876F817885BA
:101EF00089859A8520E030E040E85FE30E9479031D
:101F000088232CF481E090E09E838D833FC06F8115
:101F1000788589859A8520E03FEF4FE757E40E9456
:101F2000190318164CF56B857C858D859E8520E000
:101F300030E040E251E40E941F02DC01CB01BC0111
:101F4000CD010E944900DC01CB019E838D830FC02F
:101F500088EC90E09C838B838B819C810197F1F7C7
:101F60009C838B838D819E8101979E838D838D8140
:101F70009E81009769F714C06F81788589859A855D
:101F80000E944900DC01CB019E838D838D819E815F
:101F90009A83898389819A810197F1F79A8389834A
:101FA00082E08FAF8FADEF960FB6F894DEBF0FBE15
:101FB000CDBFCF91DF910895DF93CF93CDB7DEB73B
:101FC000A3970FB6F894DEBF0FBECDBF9AA389A327
:101FD000E9A1FAA1818161E00E94A60A88A388A1F3
:101FE000813019F088A1833019F481E08BA392C16C
:101FF000E9A1FAA18081882309F0C2C0E9A1FAA170
:102000008281E9A1FAA19381692F41E00E94E8074A
:1020100088A388A1813031F088A1833019F088A18C
:10202000823019F481E08BA375C1E9A1FAA1828104
:10203000E9A1FAA19381692F41E00E94FD088F8FE9
:102040008F8D813031F08F8D843019F08F8D8230FB
:1020500011F41BA25FC11E8E84C0E9A1FAA12181E7
:102060008E8D882F90E0FC01E859FF4F9081822FE0
:10207000692F0E94F00A8F8F80E090E0A6E1B3E420
:10208000898F9A8FAB8FBC8F698D7A8D8B8D9C8D4C
:1020900020E030E04AEF54E40E941F02DC01CB0153
:1020A0008D8B9E8BAF8BB88F6D897E898F89988D34
:1020B00020E030E040E85FE30E94790388232CF4BD
:1020C00081E090E09C8B8B8B3FC06D897E898F89EE
:1020D000988D20E03FEF4FE757E40E941903181650
:1020E0004CF5698D7A8D8B8D9C8D20E030E040E23F
:1020F00051E40E941F02DC01CB01BC01CD010E9412
:102100004900DC01CB019C8B8B8B0FC088EC90E0ED
:102110009A8B898B89899A890197F1F79A8B898B98
:102120008B899C8901979C8B8B8B8B899C890097D1
:1021300069F714C06D897E898F89988D0E94490046
:10214000DC01CB019C8B8B8B8B899C89988B8F8737
:102150008F8598890197F1F7988B8F878E8D8F5F88
:102160008E8F8E8D8A3008F478CF8F8D813019F064
:102170008F8D843011F41BA2CDC082E08BA3CAC026
:10218000E9A1FAA18081813009F0C2C0E9A1FAA1D8
:102190008281E9A1FAA19381692F41E00E94E807B9
:1021A00088A388A1813031F088A1833019F088A1FB
:1021B000823019F481E08BA3ADC0E9A1FAA182813C
:1021C000E9A1FAA19381692F40E00E94FD088F8F59
:1021D0008F8D813031F08F8D843019F08F8D82306A
:1021E00011F41BA297C01D8E84C0E9A1FAA1218120
:1021F0008D8D882F90E0FC01EE58FF4F9081822F4B
:10220000692F0E94F00A8F8F80E090E0A6E1B3E48E
:102210008B879C87AD87BE876B857C858D859E85EA
:1022200020E030E04AEF54E40E941F02DC01CB01C1
:102230008F839887A987BA876F81788589859A85E2
:1022400020E030E040E85FE30E94790388232CF42B
:1022500081E090E09E838D833FC06F817885898582
:102260009A8520E03FEF4FE757E40E9419031816C4
:102270004CF56B857C858D859E8520E030E040E2C5
:1022800051E40E941F02DC01CB01BC01CD010E9480
:102290004900DC01CB019E838D830FC088EC90E068
:1022A0009C838B838B819C810197F1F79C838B832B
:1022B0008D819E8101979E838D838D819E81009764
:1022C00069F714C06F81788589859A850E944900D5
:1022D000DC01CB019E838D838D819E819A838983CE
:1022E00089819A810197F1F79A8389838D8D8F5F18
:1022F0008D8F8D8D8A3008F478CF8F8D813019F0D5
:102300008F8D843011F41BA205C082E08BA302C024
:1023100082E08BA38BA1A3960FB6F894DEBF0FBE0D
:10232000CDBFCF91DF910895DF93CF9300D000D040
:102330000F92CDB7DEB79C838B83EB81FC818081CC
:10234000EB81FC819181692F41E00E94E8078A833B
:102350008A81813031F08A81833019F08A8182301C
:1023600019F486E08D833EC0EB81FC818281882355
:10237000C9F4EB81FC818081EB81FC819181692F23
:1023800041E00E94FD0889838981813031F0898193
:10239000843019F08981823019F481E08D8322C064
:1023A0001D8220C0EB81FC8182818130C9F4EB81E8
:1023B000FC818081EB81FC819181692F40E00E944A
:1023C000FD0889838981813031F08981843019F059
:1023D0008981823019F481E08D8304C01D8202C09E
:1023E00084E08D838D810F900F900F900F900F9050
:1023F000CF91DF910895DF93CF9300D000D0CDB778
:10240000DEB79B838A83EA81FB8182818823D1F4B2
:10241000EA81FB818081EA81FB819181692F40E023
:102420000E94FD0889838981813031F0898184305F
:1024300019F08981823019F483E08C8324C082E012
:102440008C8321C0EA81FB8182818130D1F4EA81D1
:10245000FB818081EA81FB819181692F41E00E94AB
:10246000FD0889838981813031F08981843019F0B8
:102470008981823019F483E08C8305C082E08C83EB
:1024800002C084E08C838C810F900F900F900F908E
:10249000CF91DF910895DF93CF93CDB7DEB76F97DC
:1024A0000FB6F894DEBF0FBECDBF8D8F7F8F6E8FBE
:1024B000EE8DFF8D8081EE8DFF8D9181692F40E043
:1024C0000E94FD08EE8DFF8D8281EE8DFF8D938140
:1024D000692F40E00E94FD08EE8DFF8D86816D8D95
:1024E0000E94F00AEE8DFF8D8481EE8DFF8D958127
:1024F000692F41E00E94FD0880E090E0A0E8BFE382
:10250000898F9A8FAB8FBC8F698D7A8D8B8D9C8DC7
:1025100020E030E04AEF54E40E941F02DC01CB01CE
:102520008D8B9E8BAF8BB88F6D897E898F89988DAF
:1025300020E030E040E85FE30E94790388232CF438
:1025400081E090E09C8B8B8B3FC06D897E898F8969
:10255000988D20E03FEF4FE757E40E9419031816CB
:102560004CF5698D7A8D8B8D9C8D20E030E040E2BA
:1025700051E40E941F02DC01CB01BC01CD010E948D
:102580004900DC01CB019C8B8B8B0FC088EC90E069
:102590009A8B898B89899A890197F1F79A8B898B14
:1025A0008B899C8901979C8B8B8B8B899C8900974D
:1025B00069F714C06D897E898F89988D0E944900C2
:1025C000DC01CB019C8B8B8B8B899C89988B8F87B3
:1025D0008F8598890197F1F7988B8F87EE8DFF8D06
:1025E0008481EE8DFF8D9581692F40E00E94FD086A
:1025F00080E090E0A0E8BFE38B879C87AD87BE8733
:102600006B857C858D859E8520E030E04AEF54E423
:102610000E941F02DC01CB018F839887A987BA87AC
:102620006F81788589859A8520E030E040E85FE316
:102630000E94790388232CF481E090E09E838D83AF
:102640003FC06F81788589859A8520E03FEF4FE70D
:1026500057E40E94190318164CF56B857C858D850F
:102660009E8520E030E040E251E40E941F02DC0140
:10267000CB01BC01CD010E944900DC01CB019E834E
:102680008D830FC088EC90E09C838B838B819C8131
:102690000197F1F79C838B838D819E8101979E83A7
:1026A0008D838D819E81009769F714C06F81788535
:1026B00089859A850E944900DC01CB019E838D8328
:1026C0008D819E819A83898389819A810197F1F70F
:1026D0009A8389836F960FB6F894DEBF0FBECDBF85
:1026E000CF91DF910895DF93CF93CDB7DEB7EB970E
:1026F0000FB6F894DEBF0FBECDBF89AF7BAF6AAF18
:1027000080919F00803108F018C1EAADFBAD808157
:10271000EAADFBAD9181692F41E00E94FD08EAAD71
:10272000FBAD8281EAADFBAD9381692F40E00E9451
:10273000FD08EAADFBAD868169AD0E94F00AEAAD05
:10274000FBAD8481EAADFBAD9581692F41E00E942C
:10275000FD0880E090E0A0E8BFE38DAB9EABAFAB9F
:10276000B8AF6DA97EA98FA998AD20E030E04AEFFF
:1027700054E40E941F02DC01CB0189AB9AABABABE6
:10278000BCAB69A97AA98BA99CA920E030E040E8FC
:102790005FE30E94790388232CF481E090E098ABFA
:1027A0008FA73FC069A97AA98BA99CA920E03FEF18
:1027B0004FE757E40E94190318164CF56DA97EA93E
:1027C0008FA998AD20E030E040E251E40E941F0262
:1027D000DC01CB01BC01CD010E944900DC01CB0131
:1027E00098AB8FA70FC088EC90E09EA78DA78DA512
:1027F0009EA50197F1F79EA78DA78FA598A9019790
:1028000098AB8FA78FA598A9009769F714C069A9FD
:102810007AA98BA99CA90E944900DC01CB0198AB45
:102820008FA78FA598A99CA78BA78BA59CA501977F
:10283000F1F79CA78BA7EAADFBAD8481EAADFBADB8
:102840009581692F40E00E94FD0880E090E0A0E8BB
:10285000BFE38FA398A7A9A7BAA76FA178A589A559
:102860009AA520E030E04AEF54E40E941F02DC0108
:10287000CB018BA39CA3ADA3BEA36BA17CA18DA117
:102880009EA120E030E040E85FE30E9479038823C6
:102890002CF481E090E09AA389A33FC06BA17CA1B6
:1028A0008DA19EA120E03FEF4FE757E40E9419035E
:1028B00018164CF56FA178A589A59AA520E030E0FF
:1028C00040E251E40E941F02DC01CB01BC01CD01BA
:1028D0000E944900DC01CB019AA389A30FC088ECB8
:1028E00090E098A38F8F8F8D98A10197F1F798A30F
:1028F0008F8F89A19AA101979AA389A389A19AA1EF
:10290000009769F714C06BA17CA18DA19EA10E94C4
:102910004900DC01CB019AA389A389A19AA19E8FCA
:102920008D8F8D8D9E8D0197F1F79E8F8D8F80916C
:102930009F008F5F80939F002EC180919F00803108
:1029400008F429C180919F00803208F024C1809151
:102950009E002AAD3BAD61E0A9010E944B19EAAD92
:10296000FBAD8081EAADFBAD9181692F41E00E9412
:10297000FD08EAADFBAD8281EAADFBAD9381692F25
:1029800040E00E94FD08EAADFBAD868169AD0E9482
:10299000F00AEAADFBAD8481EAADFBAD9581692F0C
:1029A00041E00E94FD0880E090E0A0E8BFE3898F4D
:1029B0009A8FAB8FBC8F698D7A8D8B8D9C8D20E02B
:1029C00030E04AEF54E40E941F02DC01CB018D8B02
:1029D0009E8BAF8BB88F6D897E898F89988D20E013
:1029E00030E040E85FE30E94790388232CF481E023
:1029F00090E09C8B8B8B3FC06D897E898F89988DF1
:102A000020E03FEF4FE757E40E94190318164CF5FA
:102A1000698D7A8D8B8D9C8D20E030E040E251E411
:102A20000E941F02DC01CB01BC01CD010E944900C4
:102A3000DC01CB019C8B8B8B0FC088EC90E09A8BD8
:102A4000898B89899A890197F1F79A8B898B8B8970
:102A50009C8901979C8B8B8B8B899C89009769F74C
:102A600014C06D897E898F89988D0E944900DC0190
:102A7000CB019C8B8B8B8B899C89988B8F878F85C7
:102A800098890197F1F7988B8F87EAADFBAD848128
:102A9000EAADFBAD9581692F40E00E94FD0880E022
:102AA00090E0A0E8BFE38B879C87AD87BE876B85EE
:102AB0007C858D859E8520E030E04AEF54E40E94BD
:102AC0001F02DC01CB018F839887A987BA876F81AA
:102AD000788589859A8520E030E040E85FE30E94B0
:102AE000790388232CF481E090E09E838D833FC09E
:102AF0006F81788589859A8520E03FEF4FE757E41D
:102B00000E94190318164CF56B857C858D859E8572
:102B100020E030E040E251E40E941F02DC01CB01E2
:102B2000BC01CD010E944900DC01CB019E838D8355
:102B30000FC088EC90E09C838B838B819C810197F4
:102B4000F1F79C838B838D819E8101979E838D837A
:102B50008D819E81009769F714C06F817885898582
:102B60009A850E944900DC01CB019E838D838D8173
:102B70009E819A83898389819A810197F1F79A834B
:102B8000898380919F008F5F80939F0080919E003A
:102B90008F5F80939E0080E0EB960FB6F894DEBFC7
:102BA0000FBECDBFCF91DF910895DF93CF93CDB707
:102BB000DEB7A0970FB6F894DEBF0FBECDBF8D8FE6
:102BC0007F8F6E8F8091A200803108F018C1EE8D4A
:102BD000FF8D8081EE8DFF8D9181692F41E00E94F4
:102BE000FD08EE8DFF8D8281EE8DFF8D9381692F23
:102BF00040E00E94FD08EE8DFF8D86816D8D0E9464
:102C0000F00AEE8DFF8D8481EE8DFF8D9581692F09
:102C100041E00E94FD0880E090E0A0E8BFE3898FDA
:102C20009A8FAB8FBC8F698D7A8D8B8D9C8D20E0B8
:102C300030E04AEF54E40E941F02DC01CB018D8B8F
:102C40009E8BAF8BB88F6D897E898F89988D20E0A0
:102C500030E040E85FE30E94790388232CF481E0B0
:102C600090E09C8B8B8B3FC06D897E898F89988D7E
:102C700020E03FEF4FE757E40E94190318164CF588
:102C8000698D7A8D8B8D9C8D20E030E040E251E49F
:102C90000E941F02DC01CB01BC01CD010E94490052
:102CA000DC01CB019C8B8B8B0FC088EC90E09A8B66
:102CB000898B89899A890197F1F79A8B898B8B89FE
:102CC0009C8901979C8B8B8B8B899C89009769F7DA
:102CD00014C06D897E898F89988D0E944900DC011E
:102CE000CB019C8B8B8B8B899C89988B8F878F8555
:102CF00098890197F1F7988B8F87EE8DFF8D8481EE
:102D0000EE8DFF8D9581692F40E00E94FD0880E0E7
:102D100090E0A0E8BFE38B879C87AD87BE876B857B
:102D20007C858D859E8520E030E04AEF54E40E944A
:102D30001F02DC01CB018F839887A987BA876F8137
:102D4000788589859A8520E030E040E85FE30E943D
:102D5000790388232CF481E090E09E838D833FC02B
:102D60006F81788589859A8520E03FEF4FE757E4AA
:102D70000E94190318164CF56B857C858D859E8500
:102D800020E030E040E251E40E941F02DC01CB0170
:102D9000BC01CD010E944900DC01CB019E838D83E3
:102DA0000FC088EC90E09C838B838B819C81019782
:102DB000F1F79C838B838D819E8101979E838D8308
:102DC0008D819E81009769F714C06F817885898510
:102DD0009A850E944900DC01CB019E838D838D8101
:102DE0009E819A83898389819A810197F1F79A83D9
:102DF00089838091A2008F5F8093A2000CC0109203
:102E0000A2001092A1001092A0002E8D3F8D81E0B3
:102E1000B9010E944B12A0960FB6F894DEBF0FBE08
:102E2000CDBFCF91DF910895DF93CF93CDB7DEB7BC
:102E3000EA970FB6F894DEBF0FBECDBF9AAF89AF49
:102E4000E9ADFAAD8081E9ADFAAD9181692F41E03C
:102E50000E94E807E9ADFAAD8281E9ADFAAD938150
:102E6000692F41E00E94E807E9ADFAAD8481E9AD40
:102E7000FAAD9581692F41E00E94E807E9ADFAAD0E
:102E800086816FEF0E94A60A80E090E0A0E2B2E4A3
:102E90008DAB9EABAFABB8AF6DA97EA98FA998AD36
:102EA00020E030E04AEF54E40E941F02DC01CB0135
:102EB00089AB9AABABABBCAB69A97AA98BA99CA92E
:102EC00020E030E040E85FE30E94790388232CF49F
:102ED00081E090E098AB8FA73FC069A97AA98BA940
:102EE0009CA920E03FEF4FE757E40E941903181612
:102EF0004CF56DA97EA98FA998AD20E030E040E2A5
:102F000051E40E941F02DC01CB01BC01CD010E94F3
:102F10004900DC01CB0198AB8FA70FC088EC90E093
:102F20009EA78DA78DA59EA50197F1F79EA78DA7BA
:102F30008FA598A9019798AB8FA78FA598A90097FF
:102F400069F714C069A97AA98BA99CA90E944900B4
:102F5000DC01CB0198AB8FA78FA598A99CA78BA765
:102F60008BA59CA50197F1F79CA78BA729AD3AAD3E
:102F700088E3B9010E944B1280E090E0A0E8BFE333
:102F80008FA398A7A9A7BAA76FA178A589A59AA585
:102F900020E030E04AEF54E40E941F02DC01CB0144
:102FA0008BA39CA3ADA3BEA36BA17CA18DA19EA16D
:102FB00020E030E040E85FE30E94790388232CF4AE
:102FC00081E090E09AA389A33FC06BA17CA18DA171
:102FD0009EA120E03FEF4FE757E40E941903181627
:102FE0004CF56FA178A589A59AA520E030E040E2D4
:102FF00051E40E941F02DC01CB01BC01CD010E9403
:103000004900DC01CB019AA389A30FC088EC90E0B2
:1030100098A38F8F8F8D98A10197F1F798A38F8F29
:1030200089A19AA101979AA389A389A19AA100973E
:1030300069F714C06BA17CA18DA19EA10E944900DB
:10304000DC01CB019AA389A389A19AA19E8F8D8FC0
:103050008D8D9E8D0197F1F79E8F8D8F29AD3AADA5
:103060008EE0B9010E944B1280E090E0A0E8BFE33F
:10307000898F9A8FAB8FBC8F698D7A8D8B8D9C8D4C
:1030800020E030E04AEF54E40E941F02DC01CB0153
:103090008D8B9E8BAF8BB88F6D897E898F89988D34
:1030A00020E030E040E85FE30E94790388232CF4BD
:1030B00081E090E09C8B8B8B3FC06D897E898F89EE
:1030C000988D20E03FEF4FE757E40E941903181650
:1030D0004CF5698D7A8D8B8D9C8D20E030E040E23F
:1030E00051E40E941F02DC01CB01BC01CD010E9412
:1030F0004900DC01CB019C8B8B8B0FC088EC90E0EE
:103100009A8B898B89899A890197F1F79A8B898B98
:103110008B899C8901979C8B8B8B8B899C890097D1
:1031200069F714C06D897E898F89988D0E94490046
:10313000DC01CB019C8B8B8B8B899C89988B8F8737
:103140008F8598890197F1F7988B8F8729AD3AADD4
:1031500081E0B9010E944B1280E090E0A0E8BFE35B
:103160008B879C87AD87BE876B857C858D859E858B
:1031700020E030E04AEF54E40E941F02DC01CB0162
:103180008F839887A987BA876F81788589859A8583
:1031900020E030E040E85FE30E94790388232CF4CC
:1031A00081E090E09E838D833FC06F817885898523
:1031B0009A8520E03FEF4FE757E40E941903181665
:1031C0004CF56B857C858D859E8520E030E040E266
:1031D00051E40E941F02DC01CB01BC01CD010E9421
:1031E0004900DC01CB019E838D830FC088EC90E009
:1031F0009C838B838B819C810197F1F79C838B83CC
:103200008D819E8101979E838D838D819E81009704
:1032100069F714C06F81788589859A850E94490075
:10322000DC01CB019E838D838D819E819A8389836E
:1032300089819A810197F1F79A838983EA960FB67B
:10324000F894DEBF0FBECDBFCF91DF910895DF931D
:10325000CF9300D000D0CDB7DEB79A8389837C832B
:103260006B830DC0E981FA8180812B813C81B9019A
:103270000E94731389819A8101969A838983E981D7
:10328000FA818081882371F70F900F900F900F9033
:10329000CF91DF910895DF93CF9300D000D00F92AC
:1032A000CDB7DEB78A836B835D834C8319828B81B4
:1032B000882319F48A81898303C08A81805C898389
:1032C000898180682C813D81B9010E944B120F9049
:1032D0000F900F900F900F90CF91DF910895DF9393
:1032E000CF9300D000D000D0CDB7DEB79B838A83C8
:1032F0006C835E834D838C81882F90E00896880FC5
:10330000991F880F991F880F991F2D813E81B90140
:103310000E944B12198211C08981282F30E08A81C6
:103320009B81FC01E20FF31F80812D813E81B90159
:103330000E94731389818F5F89838981883060F34C
:103340002D813E8181E061E0A9010E944B192D8110
:103350003E818C81B9010E94731326960FB6F894B2
:10336000DEBF0FBECDBFCF91DF910895DF93CF9326
:10337000CDB7DEB76A970FB6F894DEBF0FBECDBFEC
:103380006D8B7E8B8F8B988F5A8F498F8AE0FE01D1
:103390003B96DF01982F1D929A95E9F780E28B8783
:1033A0001F82188619861A8681E089838D899E89F5
:1033B000AF89B88D0097A105B10509F050C0298DDE
:1033C0003A8D80E3B9010E94731352C08D899E89A2
:1033D000AF89B88D2AE030E040E050E0BC01CD017B
:1033E0000E94C71CDC01CB018A838A81282F30E030
:1033F00040E050E08D899E89AF89B88D821B930B88
:10340000A40BB50B8D8B9E8BAF8BB88F8F8198855E
:10341000A985BA859E01255F3F4FF901E80FF91F85
:103420008A8180838D899E89AF89B88D2AE030E0BA
:1034300040E050E0BC01CD010E94C71CDA01C90187
:103440008D8B9E8BAF8BB88F8F819885A985BA8520
:103450000196A11DB11D8F839887A987BA878D8991
:103460009E89AF89B88D0097A105B10509F0AECF4F
:103470008F819885A985BA850197A109B1098B83A8
:103480009C83AD83BE831DC08B819C81AD81BE8139
:103490009E01255F3F4FF901E80FF91F8081805D94
:1034A000298D3A8DB9010E94D51589838B819C8124
:1034B000AD81BE810197A109B1098B839C83AD8346
:1034C000BE838B819C81AD81BE81BB23ECF6298DAF
:1034D0003A8D80E060E0A9010E944B1984E460E02D
:1034E00041E00E94E80784E460E041E00E94FD08BA
:1034F0006A960FB6F894DEBF0FBECDBFCF91DF91B5
:103500000895DF93CF9300D000D0CDB7DEB79A8374
:1035100089837C836B83E981FA81918183E4692FBC
:1035200041E00E94E807E981FA81938183E4692FF1
:1035300041E00E94E807E981FA81958183E4692FDF
:1035400041E00E94E807E981FA81978183E4692FCD
:1035500041E00E94E807EB81FC81918183E4692FBF
:1035600040E00E94E807EB81FC81938183E4692FAE
:1035700040E00E94E807EB81FC81958183E4692F9C
:1035800040E00E94E807EB81FC81978183E4692F8A
:1035900040E00E94E807E981FA81918183E4692F84
:1035A00041E00E94FD08E981FA81938183E4692F5B
:1035B00041E00E94FD08E981FA81958183E4692F49
:1035C00041E00E94FD08E981FA81978183E4692F37
:1035D00041E00E94FD08EB81FC81918183E4692F29
:1035E00041E00E94FD08EB81FC81938183E4692F17
:1035F00041E00E94FD08EB81FC81958183E4692F05
:1036000041E00E94FD08EB81FC81978183E4692FF2
:1036100041E00E94FD080F900F900F900F90CF9106
:10362000DF910895DF93CF93CDB7DEB769970FB6DB
:10363000F894DEBF0FBECDBF9C8B8B8B7E8B6D8BCA
:10364000588F4F8B198ACFC083E4698940E00E946C
:10365000FD0884E0888BBBC09E012E5E3F4F83E453
:103660006889A9010E94120A8F8780E090E0A0EF8C
:10367000B1E48B879C87AD87BE876B857C858D8504
:103680009E8520E030E04AEF54E40E941F02DC01F6
:10369000CB018F839887A987BA876F8178858985C1
:1036A0009A8520E030E040E85FE30E9479038823B8
:1036B0002CF481E090E09E838D833FC06F817885FC
:1036C00089859A8520E03FEF4FE757E40E94190370
:1036D00018164CF56B857C858D859E8520E030E045
:1036E00040E251E40E941F02DC01CB01BC01CD018C
:1036F0000E944900DC01CB019E838D830FC088ECC2
:1037000090E09C838B838B819C810197F1F79C8354
:103710008B838D819E8101979E838D838D819E8178
:10372000009769F714C06F81788589859A850E9412
:103730004900DC01CB019E838D838D819E819A831C
:10374000898389819A810197F1F79A8389838F858B
:103750008823D1F58A898823B9F584E460E041E0C3
:103760000E94E80784E460E041E00E94FD0883E4F1
:10377000698941E00E94FD088989482F50E08889C5
:10378000882F90E09C0124503040CA01880F991F77
:10379000880F991F820F931FFC01E458FF4F80810F
:1037A000EF89F88D80830BC09E012E5E3F4F83E42E
:1037B0006889A9010E94120A8A89813019F08A89D0
:1037C000882391F3198E15C088898F5F888B88892B
:1037D000883008F441CF83E4698941E00E94FD0804
:1037E00089898F5F898B8989843008F42DCF81E0A6
:1037F000898F898D69960FB6F894DEBF0FBECDBF55
:10380000CF91DF910895DF93CF93CDB7DEB76B975C
:103810000FB6F894DEBF0FBECDBFCE014096988F95
:103820008F8BECE8F0E0FA8FE98FF7E0FB8FE98D02
:10383000FA8D0080898D9A8D01969A8F898FEF89F4
:10384000F88D00828F89988D0196988F8F8B9B8D34
:1038500091509B8FEB8DEE2351F7CE0140960E9445
:1038600014170E94960B81E460E00E94A60A83E48C
:1038700061E00E94A60A80E00E94C70B8F878F85B7
:10388000882F90E0A0E0B0E09E01205F3F4FBC0198
:10389000CD01A9010E94B61980E090E0A8ECB2E445
:1038A0008B879C87AD87BE876B857C858D859E8544
:1038B00020E030E04AEF54E40E941F02DC01CB011B
:1038C0008F839887A987BA876F81788589859A853C
:1038D00020E030E040E85FE30E94790388232CF485
:1038E00081E090E09E838D833FC06F8178858985DC
:1038F0009A8520E03FEF4FE757E40E94190318161E
:103900004CF56B857C858D859E8520E030E040E21E
:1039100051E40E941F02DC01CB01BC01CD010E94D9
:103920004900DC01CB019E838D830FC088EC90E0C1
:103930009C838B838B819C810197F1F79C838B8384
:103940008D819E8101979E838D838D819E810097BD
:1039500069F714C06F81788589859A850E9449002E
:10396000DC01CB019E838D838D819E819A83898327
:1039700089819A810197F1F79A8389839E01205F5B
:103980003F4F80E060E0A9010E944B1974CFA1E293
:103990001A2EAA1BBB1BFD010DC0AA1FBB1FEE1FC9
:1039A000FF1FA217B307E407F50720F0A21BB30B14
:1039B000E40BF50B661F771F881F991F1A9469F790
:1039C00060957095809590959B01AC01BD01CF01EC
:1039D00008952F923F924F925F926F927F928F92B3
:1039E0009F92AF92BF92CF92DF92EF92FF920F938E
:1039F0001F93CF93DF93CDB7DEB7CA1BDB0B0FB698
:103A0000F894DEBF0FBECDBF09942A883988488854
:103A10005F846E847D848C849B84AA84B984C884EA
:103A2000DF80EE80FD800C811B81AA81B981CE0FE1
:103A3000D11D0FB6F894DEBF0FBECDBFED010895C6
:043A4000F894FFCF28
:103A44000000000000000000C0F9A4B0999282F8C0
:103A540080903F065B4F666D7D077F6F3738392F47
:103A64003435362A3132332D43303D2B4407440656
:043A740044054200C3
:00000001FF
